:100000000C94DB020C9403030C9403030C94030381
:100010000C9403030C9403030C9403030C94030348
:100020000C9403030C9403030C9403030C94030338
:100030000C9403030C9403030C9403030C94030328
:100040000C94F7200C9403030C941E220C94502261
:100050000C9403030C9403030C9403030C94030308
:100060000C9403030C94030307634236B79BD8A791
:100070001A39685618AEBAAB558C1D3CB7CC5763CD
:10008000BD6DEDFD753EF6177231BF000000803F7B
:1000900008000000BE922449123EABAAAA2ABECD97
:1000A000CCCC4C3E00000080BEABAAAAAA3E000009
:1000B0000000BF000000803F000000000008417801
:1000C000D3BB4387D1133D190E3CC3BD4282AD2B38
:1000D0003E68EC8276BED98FE1A93E4C80EFFFBE30
:1000E00001C4FF7F3F000000000026633D73746180
:1000F00072740025642E2564002533642E25640067
:10010000D5C90300B08E03009C57030049240300A7
:1001100070F40200CDC70200249E02003C7702006A
:10012000E2520200E63002001C1102005DF3010001
:1001300083D701006CBD0100F8A401000A8E010004
:10014000877801005664010061510100913F010070
:10015000D32E0100141F01004510010054020100BC
:1001600033F50000D6E800002FDD000032D2000099
:10017000D5C700000EBE0000D2B400001AAC0000CB
:10018000DEA30000159C0000B8940000C28D0000A2
:100190002B870000EE800000067B00006E750000DB
:1001A00020700000196B000055660000CF61000050
:1001B000845D00007159000092550000E451000078
:1001C000664E0000134B0000EA470000E9440000BF
:1001D0000D420000543F0000BC3C0000443A0000C7
:1001E000E9370000AB350000883300007D310000A6
:1001F0008B2F0000B02D0000EA2B0000392A0000F0
:100200009B28000010270000962500002D240000E8
:10021000D4220000892100004D2000001F1F000093
:10022000FE1D0000E81C0000DF1B0000E11A0000BA
:10023000ED19000003190000231800004D170000FD
:100240007F160000B9150000FC14000045140000E2
:1002500097130000EF1200004E120000B3110000CF
:100260001E1100008F10000005100000810F00001B
:10027000020F0000870E0000110E0000A00D00000C
:10028000330D0000CA0C0000640C0000030C0000D9
:10029000A50B00004A0B0000F30A00009F0A0000B3
:1002A0004E0A0000FF090000B40900006B090000BD
:1002B00025090000E10800009F0800006008000018
:1002C00023080000E8070000AF07000078070000DF
:1002D000420700000F070000DD060000AD06000029
:1002E0007E0600005106000026060000FC05000006
:1002F000D3050000AB050000850500006005000087
:100300003C05000019050000F8040000D7040000B7
:10031000B8040000990400007B0400005E040000A3
:1003200043040000270400000D040000F403000053
:10033000DB030000C3030000AC03000095030000D2
:100340007F0300006A0300002070196B5566CF61BF
:10035000845D71599255E451664E134BEA47E94466
:100360000D42543FBC3C443AE937AB3588337D31CC
:100370008B2FB02DEA2B392A9B28102796252D2468
:10038000D42289214D201F1FFE1DE81CDF1BE11A0E
:10039000ED19031923184D177F16B915FC144514D0
:1003A0009713EF124E12B3111E118F100510810F0B
:1003B000020F870E110EA00D330DCA0C640C030C36
:1003C000A50B4A0BF30A9F0A4E0AFF09B4096B09F1
:1003D0002509E1089F0860082308E807AF077807A8
:1003E00042070F07DD06AD067E0651062606FC0510
:1003F000D305AB05850560053C051905F804D70450
:10040000B80499047B045E04430427040D04F40338
:10041000DB03C303AC0395037F036A035503410366
:100420002E031B030803F602E502D402C402B40241
:10043000A4029502860278026A025C024F0242021E
:1004400036022A024669726D7761726520762573DD
:1004500000252D3133730025732043004554413A64
:10046000202025326473004554413A2025643A2502
:10047000303264002564206F66202564004C696476
:100480003A202533642043004554413A203E313020
:10049000303068004F70656E504352002A2A2A207F
:1004A00052756E20436F6D706C657465202A2A2A20
:1004B0000052656164790048656174696E67204C1B
:1004C000696400436F6F6C696E67004865617469A9
:1004D0006E670069646C6500686F6C64696E6700C4
:1004E000636F6F6C696E670068656174696E670041
:1004F0006572726F72007374617274757000636FED
:100500006D706C6574650072756E6E696E67006CF7
:100510006964776169740073746F7070656400005A
:1005200000000800020100000304070000000000B2
:10053000000000010204081020408001020408109D
:10054000200102040810200404040404040404022A
:10055000020202020203030303030300000000235C
:10056000002600290000000000250028002B0000C4
:10057000000000240027002A004E414E494E4954F5
:1005800059494E46CDCCCC3D0AD7233C17B7D1387C
:1005900077CC2B329595E6241FB14F0A00002041FD
:1005A0000000C84200401C4620BCBE4CCA1B0E5A6C
:1005B000AEC59D74802211241FBECFEFD8E0DEBFF0
:1005C000CDBF11E0A0E0B1E0ECE7FDE502C0059091
:1005D0000D92A038B107D9F722E0A0E8B1E001C040
:1005E0001D92A534B207E1F715E0C6EBD5E004C0D3
:1005F0002297FE010E94FC27C43BD107C9F70E9445
:10060000C4220C94BC2E0C94000080E090E008956D
:1006100081E090E00895FC01148613821282148216
:100620001582168217821086118612861386158609
:100630000895FC0114860895FC018485811104C08D
:1006400081E08487CF01089580E090E00895FC0167
:1006500013A212A215A214A217A216A211A610A6E6
:100660000895CF93DF93EC014EE050E00D960E9489
:10067000A5291A8EDF91CF9108956F5F7F4F660F86
:10068000771F680F791FFB01808191810895DC013C
:100690009296ED91FC919397E031F10574F43196C7
:1006A0009396FC93EE939297EE0FFF1FE80FF91FBE
:1006B0007183608380E090E0089580E290E0089587
:1006C000EF92FF920F931F93CF93DF938C01DC0186
:1006D00099961C921E9298977C01C0E0D0E0B2E0FF
:1006E000EB0EF11CF80182A193A1C817D90764F49D
:1006F000F70180819181DC01ED91FC910480F5810D
:10070000E02D09952196EBCFDF91CF911F910F91AD
:10071000FF90EF900895FC0117A216A20C946003BD
:10072000CF93DF93EC01E8A5F9A53196EE0FFF1FFB
:10073000E80FF91F80819181DC01ED91FC91068029
:10074000F781E02D0995009751F4E8A5F9A53196B8
:10075000F9A7E8A72AA13BA1E217F30714F1009734
:1007600079F52EA13FA12F5F3F4F3FA32EA34CA1B0
:100770005DA12417350724F5CE010E946003E8A58A
:10078000F9A53196EE0FFF1FEC0FFD1F80819181BF
:10079000DC01ED91FC910680F781E02DDF91CF9196
:1007A00009943196EE0FFF1FEC0FFD1F80819181A0
:1007B000DC01ED91FC910680F781E02D0995CFCF0A
:1007C000DF91CF9108954F925F926F927F928F92B7
:1007D0009F92AF92BF92CF92DF92EF92FF920F93D0
:1007E0001F93CF93DF937C016CE770E00E948A290E
:1007F0005C012FEFA21AB20ADC011C926CE770E0D8
:10080000C5010E948A29EC012196FC0110826CE747
:1008100070E0CE010E948A29009759F08C010F5F89
:100820001F4FDC011C926DE570E0C8010E948A290F
:1008300002C000E010E0FC011082C7010E944929BB
:100840002B013C010115110531F0C8010E94492915
:100850006B017C0103C0C12CD12C7601C5010E9423
:1008600027294B015C01E0918201F0918301EA5458
:10087000FF4F8081918184319105C1F09C012F5FF0
:100880003F4F318320832BE1289F8001299F100D4A
:1008900011240E5F1F4F0E0F1F1FD801ED91FC9109
:1008A0000190F081E02DC801099502C000E010E040
:1008B000BE01C8010E943103F80153824282C48202
:1008C000D582E682F78280869186A286B386C801A9
:1008D000DF91CF911F910F91FF90EF90DF90CF901C
:1008E000BF90AF909F908F907F906F905F904F9050
:1008F000089580E090E00C94332C682F80E090E025
:100900000C943B2C0F931F93CF93DF938C01C0E08B
:10091000D0E0F80161918F012196CE010E943B2C1D
:10092000C115F1E0DF07A9F7DF91CF911F910F917A
:100930000895CF93DF93FC0120813181243031056C
:10094000B9F0A9014F5F5F4F518340834AE2429F54
:10095000E001439FD00D11242296C80FD91FE881D2
:10096000F9810190F081E02DCE010995CE0102C000
:1009700080E090E0DF91CF910895CF92DF92EF92E7
:10098000FF920F931F93CF93DF9300D000D01F925D
:10099000CDB7DEB77C016BE570E00E948A298C013F
:1009A0006C01CE18DF08A601B701CE0101960E94A6
:1009B000A529E1E0F0E0EC0FFD1FEC0DFD1D10821C
:1009C000CE0101960E942B296C01809182019091A9
:1009D00083010C960E9499047C01FC01D5A2C4A25B
:1009E00001151105E1F06801FFEFCF1ADF0AF801E8
:1009F00010826DE570E0C6010E948A29FC01119207
:100A00008F01C6010E94E303BC01C7010E94470396
:100A10006BE570E0C8010E948A298C01E1CFC70113
:100A20000F900F900F900F900F90DF91CF911F912B
:100A30000F91FF90EF90DF90CF9008950F931F9349
:100A4000CF93DF938C0180918201909183010C966A
:100A50000E949904EC0181E090E09DA38CA367E0E3
:100A600071E0C8010E948529009759F00E94BD04D9
:100A7000BC01CE010E94470367E071E080E090E096
:100A8000F1CFCE01DF91CF911F910F9108950F9378
:100A90001F93CF93DF93EC018A016C3699F12CF40C
:100AA000633681F06436C1F142C06F3689F1603738
:100AB000C9F16E36E1F544E150E0B8010E94A52984
:100AC0001C8A35C06AE071E0CA010E949529892B11
:100AD00019F481E090E009C060E171E0C8010E9472
:100AE0009529892B29F482E090E0988F8F8B1FC085
:100AF00065E171E0C8010E949529892BC1F483E06A
:100B000090E0F3CFCA010E942B299A8F898F0FC0E2
:100B1000CA010E942B298B8FC8010E942B299E8B12
:100B20008D8B05C0CA010E941E059D8F8C8FDF91A1
:100B3000CF911F910F9108950F931F93CF93DF9340
:100B40008C01EB018EE1F80111928A95E9F7809111
:100B50008201909183010E94B10769E171E0CE01A9
:100B60000E948529EC01009789F06DE370E0CE01C9
:100B70000E948A29FC011192AF016881C8010E947C
:100B8000470569E171E080E090E0EACFDF91CF9125
:100B90001F910F910895CF92DF92EF92FF920F93E2
:100BA0001F93CF93DF937C016B01C62FDD2D00E0F7
:100BB00010E00F5F1F4FC8010E94332C899301156D
:100BC00081E01807B1F748E050E06AEE70E0C60136
:100BD0000E947729892B31F4B601C7010E949C0538
:100BE00081E001C080E0DF91CF911F910F91FF90D4
:100BF000EF90DF90CF900895CF93DF93C0E0D0E0E7
:100C0000CE010E94332C8F3F31F42196C233D1059F
:100C1000B9F781E001C080E0DF91CF9108951F9383
:100C2000CF93DF930E94FC05882329F068E280E0DF
:100C300090E00E943B2C14B784B78E7F84BF84E77A
:100C400093E00E941310EC01612F609561700E9487
:100C50005306D0938301C0938201DF91CF911F91FE
:100C6000089580918201909183010C94640DFC01A0
:100C7000E150FD4F20812223A1F036970190F081B1
:100C8000E02D4481558166817781452B462B472B8A
:100C900041F0FC01E950FD4F81E020813181232B9F
:100CA00009F480E008952F923F924F925F926F92E5
:100CB0007F928F929F92AF92BF92CF92DF92EF92EC
:100CC000FF920F931F93CF93DF931F92CDB7DEB7A1
:100CD0001C01FC0111821082138212820496698326
:100CE0000E94F7122101F8E04F0E511CC2010E9430
:100CF0003E13D1011E96A1014A545F4F8BE291E051
:100D0000698111969C938E939A96A417B507C9F79B
:100D1000F10115861486DA011296CA01825E9D4F92
:100D20002FE131E011963C932E935B96A817B907FB
:100D3000C9F7FA0111821082F101EC52FD4F1182C4
:100D4000108236961082118212821382349611829A
:100D5000108232961182108277961182108232961A
:100D6000118210823296108211821282138234967E
:100D700081E08083329660834101FCEF8F1A9F0AE5
:100D800091012A523D4F310185EB681A8CEF780AA8
:100D90001F921F9283E48F938AE78F931F921F9273
:100DA000A12CB12C8AE7C82E83E4D82EE12CF12C9B
:100DB0000AE714E4A301B201C4010E94101A2FEF44
:100DC00030E040E050E063E371E0C101855C9C4F9E
:100DD0000E943510F101E75BFC4F11821082F30194
:100DE00010821182128213828FE190E00E94131010
:100DF0003C010E941514F101718260828EE091E045
:100E00000E9413103C01F101608171810E948B1AD4
:100E1000F1017382628260E08FE00E94E31F61E073
:100E200082E00E94E31F61E083E00E94E31F61E033
:100E300084E00E94E31F61E085E00E94E31F80E5FB
:100E40008CBD8DB58EB56AE070E080E090E00E94C8
:100E5000702100E010EC2FE734E440E050EC6FE745
:100E600074ECC4010E94E418809180008360809338
:100E7000800082E08093810083EA8093B00084E068
:100E80008093B100F101EE51FD4F10820F900F9051
:100E90000F900F900F900F900F90DF91CF911F91B7
:100EA0000F91FF90EF90DF90CF90BF90AF909F9009
:100EB0008F907F906F905F904F903F902F9008950C
:100EC00080529D4FDC01ED91FC9184A195A1089584
:100ED00080529D4FDC01ED91FC9184A195A126A14A
:100EE00037A12817390714F4C90101960895FC01A8
:100EF000EC52FD4F208131812230310548F1BB9603
:100F00002081222341F138970190F081E02D309724
:100F1000B9F0DC01A750BD4F0D90BC91A02D2085EC
:100F200031854285538518966D917D918D919C9167
:100F30001B970E94CC2518168CF481E090E0089550
:100F4000FC01E75BFC4F80819181019739F4F5CF7B
:100F500083E090E0089580E090E0089582E090E0E2
:100F60000895FC01EC52FD4F21E030E031832083F5
:100F70003A961182108279961182108232961182ED
:100F80001082E354F24011821082FC01158614860F
:100F9000808191810C944114AF92BF92CF92DF92E5
:100FA000EF92FF920F931F93CF93DF93EC017B019E
:100FB0006A0159010E94B107FE01E252FD4FF18220
:100FC000E0823296D182C082B501CE018E519D4F12
:100FD0000E949E29C652DD4FB801882777FD809573
:100FE000982F0E941C25688379838A839B83DF91D5
:100FF000CF911F910F91FF90EF90DF90CF90BF9016
:10100000AF900895FC01E252FD4F20813181232BE6
:1010100041F03A9722E030E03183208380E090E095
:10102000089581E290E00895CF92DF92EF92FF92CF
:101030000F931F93CF93DF938C010E94370681118A
:10104000B6C078012AE2E21A2DEFF20AF8012085F3
:10105000318542855385F701608171818281938159
:101060000E9418240E94151020E030E040E050E477
:101070000E94CC25E801CC5FDC4F98012E5F3C4FED
:10108000690187FD0BC0C8010E943706811106C0A7
:10109000F6011182108260E070E007C082E090E00B
:1010A000F6019183808361E070E0CE010E94BE1959
:1010B000F801E150FD4F8081882309F478C0F701E1
:1010C000C080D180E280F380F8012085318542859F
:1010D0005385C701B6010E94CC25F801FD5F87FD4D
:1010E00027C0108220E030E040E252E4C701B601A0
:1010F0000E947D2487FF0FC0C12CD12C58ECE52E17
:1011000053E4F52E00E010E028E433E440E050E042
:1011100066E174E449C0C12CD12C4AE7E42E43E4D3
:10112000F42E9701860140E050E06AE774E43CC089
:1011300081E0808320E030E04CE852E4C701B60152
:101140000E94CC2518167CF4C12CD12C36E9E32E54
:1011500033E4F32E00E010E02FE234E440E050E00E
:1011600068E474E421C020E030E04CE052E4C701C0
:10117000B6010E947D24C12CD12C28E4E22E23E468
:10118000F22E87FF09C000E010E028EC32E440E0D6
:1011900050E06AEF74E408C000E010E028EC33E4AB
:1011A00040E050E06AEF73E4CE010E942F18DF9117
:1011B000CF911F910F91FF90EF90DF90CF90089506
:1011C0004F925F926F927F928F929F92AF92BF9257
:1011D000CF92DF92EF92FF920F931F93CF93DF9303
:1011E000EC018C0107501D4FD801AD90BC90A114AB
:1011F000B10409F464C00E943706FE01EA52FD4FB3
:101200007F01882309F451C06E01F9E0CF1AFDEF88
:10121000DF0AD601ED91FC91208531854285538509
:10122000F50160857185828593850E9418244B01A4
:101230005C010E944121D601CD90DC90C559DC4F64
:10124000488059806A807B806419750986099709EE
:101250000E941A252B013C01D801ED91FC912481BB
:10126000358146815781A8EEB3E00E94EF270E94A6
:101270001A259B01AC01C301B2010E9481249B018C
:10128000AC01C501B4010E94D0259B01AC01F6015F
:1012900060857185828593850E941924D7016D939D
:1012A0007D938D939C9313970AC0F501808591855A
:1012B000A285B385F70180839183A283B383DF91F5
:1012C000CF911F910F91FF90EF90DF90CF90BF9043
:1012D000AF909F908F907F906F905F904F90089508
:1012E000EF92FF920F931F93CF93DF93EC018C014A
:1012F00009501D4F7C0187E0E81A8DEFF80AD701ED
:101300008D919C91F801918380837997808191815F
:10131000DC01ED91FC910680F781E02D0995F70144
:1013200091838083009709F441C0D801ED91FC912D
:10133000309779F0DC0118962D913D914D915C919B
:101340001B9760857185828593850E947D24882303
:1013500019F181E0FE01E150FD4F80830E9441219F
:10136000FE01E559FC4F6083718382839383488536
:1013700059856A857B853497408351836283738363
:10138000CE010E94E008CE01DF91CF911F910F9115
:10139000FF90EF900C9414080E944121FE01E5504B
:1013A000FD4F6083718382839383EACFDF91CF9176
:1013B0001F910F91FF90EF9008950F931F93FC01E1
:1013C000EC52FD4F2081318122503109223031050C
:1013D00090F4FC010481158126813781E652FD4F8E
:1013E0004081518162817381855C9C4F0E94AB106A
:1013F0000E94E92402C060E070E083E01F910F9139
:101400000C9498202F923F924F925F926F927F920E
:101410008F929F92AF92BF92CF92DF92EF92FF9204
:101420000F931F93CF93DF938C014C018DEA881AA1
:101430008CEF980AD4011D921D921D921C92139755
:10144000F801E159FC4F1082118212821382349606
:1014500010826801B9EACB1ABCEFDB0AF6011082F0
:101460001182128213825801F5EAAF1AFCEFBF0A0B
:10147000D5011D921D921D921C921397F801E15AFD
:10148000FC4F1082118212821382349610821182D4
:10149000128213821801B2E22B1ABDEF3B0AF1014E
:1014A00080819181DC01ED91FC910480F581E02D3A
:1014B0000995E12CF12CD1018D919C91DC01ED91EC
:1014C000FC910680F781E02D0995EC01009709F465
:1014D00089C08A819B81892B09F484C0E114F104BD
:1014E00039F12C813D814E815F81A8EEB3E00E94ED
:1014F000EF270E941A252B013C01F7012085318539
:1015000042855385688579858A859B850E94182444
:101510000E94151020E030E04AE754E40E94D025F4
:101520009B01AC01C301B2010E947D2487FD55C01F
:101530008A819B81D4014D915D916D917C91480F81
:10154000591F611D711DF4014083518362837383B0
:101550004C815D816E817F81411551056105710569
:1015600071F0F60180819181A281B381840F951F72
:10157000A61FB71F80839183A283B3832CC0E1147D
:10158000F10441F0D70118966D917D918D919C9158
:101590001B9705C0F8016085718582859385288534
:1015A00039854A855B850E9418240E9415102DEC10
:1015B0003CEC4CE45EE30E9418249B01AC01D50195
:1015C0006D917D918D919C910E941924F50160830C
:1015D0007183828393837E016ECF1C821D821E8263
:1015E0001F82A6CFDF91CF911F910F91FF90EF90B7
:1015F000DF90CF90BF90AF909F908F907F906F9033
:101600005F904F903F902F9008958F929F92AF924E
:10161000BF92CF92DF92EF92FF92CF93DF93EC01D4
:10162000FC01EC52FD4F80819181039709F080C04D
:10163000E557FF4FC080D180E280F38020E030E0AA
:10164000A901C701B6010E947D248823E1F0FE01B3
:10165000ED58FC4F80818823B1F0709760817181D3
:101660008281938128EE33E040E050E00E94982789
:10167000CA01B9010E941A25A70196010E9481247E
:101680006B017C0106C0C12CD12C60E8E62E6FE313
:10169000F62EFE01E95AFC4F6081718182819381AF
:1016A000349780809180A280B380680D791D8A1D57
:1016B0009B1D0E941A254B015C01FE01E55AFC4F5F
:1016C0002081318142815381C701B6010E94D0251A
:1016D0009B01AC01C501B4010E9419240E94EE24B3
:1016E0006B017C010E944121FE01E15BFC4F808087
:1016F0009180A280B380681979098A099B0928EE34
:1017000033E040E050E00E9498272C153D054E053F
:101710005F0528F4C21AD30AE40AF50A03C0C12CF3
:10172000D12C7601C159DC4FC882D982EA82FB8272
:10173000DF91CF91FF90EF90DF90CF90BF90AF906F
:101740009F908F900895CF93DF93EA0162307105E7
:1017500011F461E00AC06130710531F460E082E0AB
:101760000E941C2061E005C060E082E00E941C2015
:1017700060E084E00E941C20BE0189E0DF91CF91EF
:101780000C949820AF92BF92CF92DF92EF92FF928B
:101790000F931F93CF93DF93EC01FC01EC52FD4FAD
:1017A000808191818330910549F0049709F099C0B7
:1017B000B59680819181892B09F493C08E010E5FCB
:1017C0001C4FF801808191819E012C5F3C4F790173
:1017D000892BA9F4288539854A855B85BC9760816A
:1017E0007181828193810E9418240E94151020E04B
:1017F00030E040E050E40E947D2487FDA8C0F8015D
:10180000808191818E01055B1C4F892BE9F428852D
:1018100039854A855B85FE01EA52FD4F6081718101
:10182000828193810E94CC2518162CF440E050EC64
:101830006FE774E404C040E050EC6FE774ECF8012B
:101840004083518362837383C7010E940F175E0137
:10185000FDEFBF1AF5018081882319F1BA97C08086
:10186000D180E280F38020E030E04CE052E4C70118
:10187000B6010E94CC251816A4F4288539854A851E
:101880005B85C701B6010E947D2487FF08C0FE0169
:10189000E85DFC4F108211821282138202C0F501B2
:1018A0001082F801C080D180E280F38020E030E037
:1018B000A901C701B6010E94CC251816E4F020E06A
:1018C00030E0A901C701B6010E947D24082F11272D
:1018D00007FD10950027110F001F1127000F111F82
:1018E0000CC0FE01E55BFC4F108211821282138254
:1018F00000E010E002C001E010E0FE01E75BFC4FF9
:10190000118300833296C080D180E280F38020E092
:1019100030E0A901C701B6010E94CC2518161CF4BD
:10192000C701B60103C0C701B60190580E94E9245F
:10193000AB01B801CE01DF91CF911F910F91FF90C4
:10194000EF90DF90CF90BF90AF900C94A30B82E00C
:1019500090E0F8019183808361E070E0C7010E940C
:10196000BE19FE01E85DFC4F1082118212821382C3
:1019700046CF8F929F92AF92BF92CF92DF92EF921B
:10198000FF920F931F93CF93DF9300D0CDB7DEB7B5
:101990004B01DB0157962D913C9158972130310531
:1019A00009F04EC05C96ED90FC905D97A701C12CAC
:1019B000D12CA12CB12CD70192968D919C9193970B
:1019C000C816D906F4F4B601C70149835A830E94A8
:1019D0003D038C01DC01ED91FC910280F381E02D4F
:1019E000099549815A81019741F4F80184A195A193
:1019F000A816B90614F45C01A801FFEFCF1ADF0A9C
:101A0000DACFF401018D128D9401B701809182012A
:101A1000909183010E94CC07809182019091830173
:101A20000F900F90DF91CF911F910F91FF90EF904A
:101A3000DF90CF90BF90AF909F908F900C94020852
:101A400022303105A1F480918201909183010F90A1
:101A50000F90DF91CF911F910F91FF90EF90DF904A
:101A6000CF90BF90AF909F908F900C94B107233090
:101A70003105D9F4DB015B966C91FC018081918189
:101A80000E944714D4015B968C910F900F90DF91C8
:101A9000CF911F910F91FF90EF90DF90CF90BF906B
:101AA000AF909F908F900C947D040F900F90DF91DA
:101AB000CF911F910F91FF90EF90DF90CF90BF904B
:101AC000AF909F908F9008952F923F924F925F9288
:101AD0006F927F928F929F92AF92BF92CF92DF923E
:101AE000EF92FF920F931F93CF93DF93CDB7DEB7A3
:101AF0006E970FB6F894DEBF0FBECDBF8C017C0190
:101B00002CE2E21A2DEFF20AD7018D919C918230DE
:101B1000910559F11CF4892B49F065C18330910579
:101B200009F462C0049709F423C15DC10E944121F8
:101B3000613A7F408105910508F455C181E090E04C
:101B4000F70191838083F801EF5FFC4F8081811161
:101B50004AC1D80112966D917C911397FB01E55F04
:101B6000FE4F808181113FC177C120E030E040E825
:101B70005FE3F801E652FD4F6081718182819381BC
:101B80000E9418249B01AC01F80164817581868153
:101B900097810E94CC2587FD26C1F801E75BFC4FA9
:101BA0001182108232961082118212821382C80131
:101BB0000E94020A83E090E0D7018D939C93F80184
:101BC000E252FD4F80819181DC01ED91FC91048016
:101BD000F581E02D0995C8010E9470090E944121FC
:101BE000F801E15BFC4FBFC06801B1E0CB1ABDEF6B
:101BF000DB0AF6018081882309F43BC15801F7E034
:101C0000AF1AFDEFBF0AD501ED91FC91D8011896EE
:101C10002D913D914D915C911B97608571858285D9
:101C200093850E9418242B013C0120E030E0A9019B
:101C30000E94CC2518165CF42DEC3CEC4CE45EE3E1
:101C4000C301B2010E947D2418165CF412C12DEC70
:101C50003CEC4CE45EEBC301B2010E94CC2587FD55
:101C600008C10E9441212B013C01D501ED91FC915D
:101C700084809580A680B7801801B5E92B1ABCEF47
:101C80003B0AF10180819181A281B381481A590AEE
:101C90006A0A7B0AA8EEB3E0A50194010E94EF272F
:101CA000641575058605970508F0E3C0F801E95944
:101CB000FC4F7F0189288A288B28D9F5D7012D91DF
:101CC0003D914D915C91F801608571858285938588
:101CD0000E9418240E9415109B01AC015801F1EAE2
:101CE000AF1AFCEFBF0AD5016D917D918D919C914A
:101CF0000E941924F50160837183828393830E947B
:101D00004121F801ED59FC4F408051806280738081
:101D1000D1018D909D90AD90BC90481859086A08EB
:101D20007B08460E571E681E791E408251826282D1
:101D30007382F8012085318542855385D7016D91E5
:101D40007D918D919C910E94CC2518162CF481E0F8
:101D5000F801ED58FC4F8083F60110820E9441216A
:101D6000F801E550FD4F60837183828393833BC00C
:101D70005801B1E0AB1ABDEFBB0AF50180818823A1
:101D800091F136970190F081E02D309761F1D80103
:101D900018962D913D914D915C911B9760857185B1
:101DA000828593850E9418246B017C0120E030E03D
:101DB000A9010E94CC25181664F42DEC3CEC4CE4EF
:101DC0005EE3C701B6010E947D2418160CF093C093
:101DD0000AC02DEC3CEC4CE45EEBC701B6010E945E
:101DE000CC2587FF88C0C80104960E94FD12C80157
:101DF0000E94DD09C80108960E946713C8010E946D
:101E0000E008C8010E94C20BC8010E94050BF8013E
:101E1000808191810E944216D80112968D919C91E9
:101E200013970E94FE1D6E960FB6F894DEBF0FBE8C
:101E3000CDBFDF91CF911F910F91FF90EF90DF9079
:101E4000CF90BF90AF909F908F907F906F905F905A
:101E50004F903F902F900895CE0101960E94CB05A0
:101E6000882309F2BE016F5F7F4FC8010E94B90C41
:101E7000BACFD6018C918111B6CF6801F7E0CF1AA5
:101E8000FDEFDF0AD601ED91FC9182819381892BD0
:101E900009F4A9CF0E9441214B015C01D601ED91CB
:101EA000FC9122813381F801E550FD4F80819181C1
:101EB000A281B381881A990AAA0ABB0AA8EEB3E0E4
:101EC0000E94D927681579058A059B0508F08BCFF4
:101ED000C8010E947009D601ED91FC91309729F05C
:101EE00082819381892B09F07ECF84E090E0F70115
:101EF0009183808378CFD5011C9275CF8F929F926A
:101F0000AF92BF92CF92DF92EF92FF920F93CF9357
:101F1000DF93EC014A015B01B901882777FD8095C9
:101F2000982F0E941C259B01AC0160E070E080E2CC
:101F300091E40E9433260E94E9246B017C0120E099
:101F400030E0A901C501B4010E94CC2518168CF41B
:101F5000C701B6010E941C259B01AC01C501B4015B
:101F60000E94D02520E030E040E05FE30E94192489
:101F700010C0C701B6010E941C259B01AC01C50120
:101F8000B4010E94D02520E030E040E05FE30E94F1
:101F900018240E94E924A70196010E94BA27AB01E8
:101FA0000023D9F077FF04C044275527461B570B61
:101FB0005F934F933F932F9389EF90E09F938F937D
:101FC000DF93CF930E943F2A8DB79EB708960FB636
:101FD000F8949EBF0FBE8DBF1AC077FF04C0442780
:101FE0005527461B570B5F934F933F932F9383EFD8
:101FF00090E09F938F93DF93CF930E943F2A8DB7FA
:102000009EB708960FB6F8949EBF0FBE8DBFDF91A6
:10201000CF910F91FF90EF90DF90CF90BF90AF9056
:102020009F908F9008950C940028CF92DF92EF92AA
:10203000FF926B017C0120E030E0A9010E947D2429
:1020400087FF04C0C701B601905802C0C701B6019E
:10205000FF90EF90DF90CF900895BC0184E891E06D
:102060000E94702984E891E00895FC0171836083E7
:102070005383428335832483168217821086118608
:1020800012861386148615860895CF92DF92EF92FA
:10209000FF92CF93DF936A017B01FC01C081D18164
:1020A00068817981882777FD8095982F0E941C256B
:1020B0009B01AC01C701B6010E94CC25181614F48F
:1020C0002E96EECFCE01DF91CF91FF90EF90DF9073
:1020D000CF9008954F925F926F927F928F929F92CE
:1020E000AF92BF92CF92DF92EF92FF920F931F9326
:1020F000CF93DF93EB0149015A01670178014880D2
:1021000059806A807B80C301B2010E947D2487FFD1
:1021100005C088829982AA82BB820CC0A701960161
:10212000C301B2010E94CC25181624F4C882D982BA
:10213000EA82FB82DF91CF911F910F91FF90EF9088
:10214000DF90CF90BF90AF909F908F907F906F90D7
:102150005F904F9008952F923F924F925F926F92AF
:102160007F928F929F92AF92BF92CF92DF92EF9227
:10217000FF920F931F93CF93DF93CDB7DEB7629794
:102180000FB6F894DEBF0FBECDBF1C016A017B0104
:10219000480159010E9445108C01A5019401C70115
:1021A000B6010E9418244B015C01D1011A962D91B1
:1021B0003D914D915C911D970E9419246B877C87FE
:1021C0008D879E87F8012281338144815581C50125
:1021D000B4010E94D0252B013C01D80116962D9107
:1021E0003D914D915C9119976B857C858D859E8580
:1021F0000E94D0259B01AC01C301B2010E941924A9
:102200006B017C01F1012681378140855185C50133
:10221000B4010E941824D8011A962D913D914D9138
:102220005C911D970E94D0259B01AC01C701B601AE
:102230000E9419246B017C0169837A838B839C83C0
:10224000F1010480F581E02DFE83ED83CF01AA2703
:1022500097FDA095BA2F8F839887A987BA87D10158
:1022600012960D911C911397EF2B71F06F81788569
:1022700089859A850E941C259B01AC01C301B2018E
:102280000E94CC251816B4F00115110519F1B801FA
:10229000882777FD8095982F0E941C256F87788B63
:1022A000898B9A8B9B01AC01C301B2010E947D24F2
:1022B00087FF06C0F101128613861486158625C095
:1022C0002F85388949895A89C701B6010E94CC25D2
:1022D0001816DCF48D819E81892B71F06F817885D1
:1022E00089859A850E941C259B01AC01C701B60116
:1022F0000E947D2487FF09C08B859C85AD85BE85A6
:10230000F10182879387A487B5876F817885898556
:102310009A850E941C256B017C01B801882777FDF6
:102320008095982F0E941C259B01AC01B101665F2E
:102330007F4F87017601C1010E946A10D101149676
:102340006D917C911597882777FD8095982F0E9435
:102350001C256B017C01F10162817381882777FD67
:102360008095982F0E941C259B01AC018701760166
:10237000BE016F5F7F4FC1010E946A10D1011696A6
:102380008D929D92AD92BC92199769817A818B81D1
:102390009C8162960FB6F894DEBF0FBECDBFDF9171
:1023A000CF911F910F91FF90EF90DF90CF90BF9052
:1023B000AF909F908F907F906F905F904F903F90E5
:1023C0002F9008954F925F926F927F928F929F927B
:1023D000AF92BF92CF92DF92EF92FF920F931F9333
:1023E000CF93DF9300D000D0CDB7DEB7DB01BA01C9
:1023F00028013901AC0120E030E02A173B0769F0E1
:10240000FA01C590D590E590F4904C5F5F4F4C1465
:102410005D046E047F0408F44AC02115310509F4F7
:1024200049C0A9014150504C440F551F440F551F3E
:10243000FC01E40FF51FE590F59005911491E982F8
:10244000FA820B831C834C5F5F4F480F591FFA01C0
:10245000C590D590E590F490620F731F882777FDA3
:102460008095982F0E941C254B015C01C301B2018D
:102470006C197D098E099F090E941A252B013C01C8
:1024800069817A818B819C816C197D098E099F09F4
:102490000E941A259B01AC01C301B2010E94812454
:1024A0009B01AC01C501B4010E94182409C02F5F33
:1024B0003F4FA3CF882777FD8095982F0E941C253A
:1024C0000F900F900F900F90DF91CF911F910F9170
:1024D000FF90EF90DF90CF90BF90AF909F908F9044
:1024E0007F906F905F904F9008954F925F926F92A0
:1024F0007F928F929F92AF92BF92CF92DF92EF9294
:10250000FF920F931F93CF93DF93DB01BA01480132
:102510005901AC0120E030E02A173B0769F0FA01CD
:10252000C590D4904E5F5F4FE12CF12C8C149D042C
:10253000AE04BF0408F441C02115310509F440C0C0
:10254000A90141505048440F551FFC01E40FF51FED
:10255000C591D4914E5F5F4F480F591FFA014590C6
:102560005490612C712C620F731F882777FD809522
:10257000982F0E941C256B017C01C501B4016419D0
:102580007509860997090E941A254B015C01BE0155
:1025900080E090E064197509860997090E941A2560
:1025A0009B01AC01C501B4010E9481249B01AC01D7
:1025B000C701B6010E94182409C02F5F3F4FACCF5E
:1025C000882777FD8095982F0E941C25DF91CF9159
:1025D0001F910F91FF90EF90DF90CF90BF90AF9041
:1025E0009F908F907F906F905F904F900895FC0127
:1025F00010821182128213820895CF92DF92EF929D
:10260000FF920F931F93CF93DF93EC0181E00E9421
:102610007B2028E833E1DC010E94E8276B017C0184
:10262000AAE0F694E794D794C794AA95D1F7A8E9BD
:10263000B8E0A70196010E94EF2728E833E140E0C7
:1026400050E02C193D094E095F090E949827890125
:102650009A0140E050E06EE770E088E493E00E9469
:102660007512688379838A839B83DF91CF911F9151
:102670000F91FF90EF90DF90CF900895FC011082B2
:1026800011821282138261E08BE00E94E31F60E0FE
:102690008CE00E94E31F61E08DE00E94E31F61E097
:1026A0008AE00E94E31F61E08AE00C941C20CF9333
:1026B000DF931F92CDB7DEB7698389818EBD0DB4DC
:1026C00007FEFDCF8EB50F90DF91CF9108958F92C9
:1026D0009F92AF92BF92EF92FF920F931F93CF936F
:1026E000DF9300D000D0CDB7DEB77C0160E08AE098
:1026F0000E941C208CE00E945220892BD9F719825D
:102700001A821B821C8260E08AE00E941C208E01DB
:102710000F5F1F4F5E0185E0A80EB11C6FEFC70170
:102720000E945713F80181938F01EA15FB05B1F759
:102730006B8170E080E090E0660F771F881F991F23
:102740002C81221F2227221F620F711D811D911DC6
:102750000A8110E020E030E049E0000F111F221F45
:10276000331F4A95D1F7600F711F821F931F098194
:102770000F7110E020E030E051E1000F111F221F27
:10278000331F5A95D1F7600F711F821F931F0E944C
:102790001A2520E030E040EA50E40E94D02528EFDE
:1027A0003FEF4FEF59E40E9481244B015C0161E04F
:1027B0008AE00E941C2020E030E04AE754E4C50192
:1027C000B4010E94D0250E94EE244B015C01A8E9CF
:1027D000B8E09B01AC010E94EF2728E833E140E01C
:1027E00050E0281939094A095B090E949827890194
:1027F0009A0148ED5FEF62E970E080E091E00E94AD
:10280000E211F70160837183828393830F900F90AD
:102810000F900F90DF91CF911F910F91FF90EF904C
:10282000BF90AF909F908F900895CF92EF920F93AB
:10283000CF93DF93EC0181E1C82E90E1E92E03E113
:1028400028E047E066E0CE010E948E1F198E188EA8
:1028500020E044E064E1CE010E94D31E0E944121A9
:102860006A8F7B8F8C8F9D8F0E9479048E8F682F4B
:1028700070E085E0DF91CF910F91EF90CF900C94B5
:10288000982026E030E0FC01318F208F0895CF930F
:10289000DF93EC016E8F70E085E00E94982020E0CD
:1028A00044E064E1CE01DF91CF910C94D31E2F92CE
:1028B0003F924F925F926F927F928F929F92AF92D0
:1028C000BF92CF92DF92EF92FF920F931F93CF931D
:1028D000DF93CDB7DEB760970FB6F894DEBF0FBEBB
:1028E000CDBF5C01E0918201F0918301E159FC4F81
:1028F0004080518062807380C301B20120E13EE0DC
:1029000040E050E00E949827322E232E822E932EF4
:102910002CE3C22ED12CE12CF12CA70196010E94B0
:102920009827C9018E010F5F1F4F48EE841643E0C0
:10293000940634F068E874E0C8010E9470292DC044
:10294000892B19F41814190494F43F932F932F92A0
:102950003F9287E694E09F938F931F930F930E947B
:102960003F2A0FB6F894DEBF0FBECDBF16C0C3011D
:10297000B201A70196010E9498277F936F938CE57F
:1029800094E09F938F931F930F930E943F2A0F9081
:102990000F900F900F900F900F90F8010190002072
:1029A000E9F7602F6E1B6B5E43E0C5010E94B91E04
:1029B000B801C5010E941C2260960FB6F894DEBFD4
:1029C0000FBECDBFDF91CF911F910F91FF90EF9080
:1029D000DF90CF90BF90AF909F908F907F906F903F
:1029E0005F904F903F902F900895EF92FF920F933A
:1029F0001F93CF93DF93CDB7DEB760970FB6F894F0
:102A0000DEBF0FBECDBF7C01E0918201F09183015A
:102A100020E030E040E05FE364817581868197814A
:102A20000E9419240E94E9247F936F938DE794E01C
:102A30009F938F938E010F5F1F4F1F930F930E94E1
:102A40003F2A42E06AE0C7010E94B91EB801C701EF
:102A50000E941C220F900F900F900F900F900F90DC
:102A600060960FB6F894DEBF0FBECDBFDF91CF9159
:102A70001F910F91FF90EF900895CF92DF92EF9208
:102A8000FF920F93CF93DF93CDB7DEB7A0970FB62A
:102A9000F894DEBF0FBECDBF6C01E0918201F091D2
:102AA0008301408551856285738501E021E030E036
:102AB000CE0101967C010E947E0FFF92EF9287E586
:102AC00094E09F938F937E0191E1E90EF11CFF92B8
:102AD000EF920E943F2A40E06DE0C6010E94B91EBD
:102AE000B701C6010E941C220F900F900F900F900B
:102AF0000F900F90A0960FB6F894DEBF0FBECDBF1B
:102B0000DF91CF910F91FF90EF90DF90CF900895DC
:102B1000EF92FF920F931F93CF93DF93CDB7DEB762
:102B200060970FB6F894DEBF0FBECDBF7C0143E0C7
:102B300060E00E94B91E80918201909183010E9401
:102B40006007182F092F80918201909183010E94C4
:102B500068070F931F939F938F9384E794E09F934D
:102B60008F938E010F5F1F4F1F930F930E943F2A79
:102B7000B801C7010E941C220FB6F894DEBF0FBE39
:102B8000CDBF60960FB6F894DEBF0FBECDBFDF910C
:102B9000CF911F910F91FF90EF900895EF92FF92C8
:102BA0000F931F93CF93DF93CDB7DEB7A0970FB6E8
:102BB000F894DEBF0FBECDBF7C0180918201909161
:102BC0008301FC01EC52FD4F20813181223031051F
:102BD00049F024F42130310539F12BC0253031057D
:102BE00024F027C087EB94E021C00E947707813052
:102BF0009105A1F06CF4892BE1F4E0918201F09150
:102C00008301E750FD4F00811181035F1F4F11C009
:102C10008230910531F0039739F00BC08BEC94E0D2
:102C200005C083EC94E002C081EB94E00E942D107B
:102C30008C0140E060E0C7010E94B91E1F930F9312
:102C400081E594E09F938F938E010F5F1F4F1F9339
:102C50000F930E943F2AB801C7010E941C220F90C7
:102C60000F900F900F900F900F90A0960FB6F894C2
:102C7000DEBF0FBECDBFDF91CF911F910F91FF90AF
:102C8000EF9008958F929F92AF92BF92EF92FF9232
:102C90000F931F93CF93DF93CDB7DEB760970FB637
:102CA000F894DEBF0FBECDBF8C01E0918201F091A0
:102CB0008301EC52FD4FE080F180FC01808D918D0D
:102CC0008E159F0519F0C8010E94B21EF801F18E01
:102CD000E08E0E944121F801828C938CA48CB58CEB
:102CE000681979098A099B0961337547810591053E
:102CF00068F020E044E064E1C8010E94D31E0E9415
:102D00004121F801628F738F848F958FE114F10454
:102D1000C1F1F7FC73C0F5E0EF16F1040CF06EC0E2
:102D200041E060E0C8010E94B91E6091820170918B
:102D300083016E517D4FC8010E941C22C8010E9470
:102D4000F514C8010E943D15C8010E94CE1523E06C
:102D5000E216F10409F041C0E0918201F091830193
:102D6000E750FD4F0190F081E02D82819381892B06
:102D700009F444C0C8010E948815C8010E94571474
:102D80003DC041E066E0C8010E94B91E84E994E0BC
:102D90000E942D10BC01C8010E941C2242E062E08A
:102DA000C8010E94B91E8FE491E09F938F9384E441
:102DB00094E09F938F93CE0101967C01FF928F93B5
:102DC0000E943F2AB701C8010E941C220F900F9059
:102DD0000F900F900F900F9011C094E0E916F1043E
:102DE00069F443E060E0C8010E94B91E8CE994E0F8
:102DF0000E942D10BC01C8010E941C2260960FB6D3
:102E0000F894DEBF0FBECDBFDF91CF911F910F9120
:102E1000FF90EF90BF90AF909F908F9008952F926A
:102E20003F924F925F926F927F928F929F92AF925A
:102E3000BF92CF92DF92EF92FF920F931F93CF93A7
:102E4000DF93CDB7DEB72A970FB6F894DEBF0FBE7B
:102E5000CDBF9A878987DC01D6968C91882309F4A7
:102E6000E5C00E94412169837A838B839C83E98535
:102E7000FA8580A191A129813A81281B390B84A56B
:102E800095A5281739070CF4D1C0028CF38DE02DDD
:102E900080809180A280B380A985BA855E96ED91ED
:102EA000FC915F97A501940160817181828193817A
:102EB0000E9418242B013C01E985FA85208931897B
:102EC000428953890E94D025A985BA8594962D916F
:102ED0003D914D915C9197970E9419246B017C0163
:102EE000E985FA8564A375A386A397A312A903A90C
:102EF00034A825A8212F302F432D522D0E94CC25F8
:102F000018162CF4812F902FA32DB22D18C0A9854F
:102F1000BA859E968D919D910D90BC91A02D8D832B
:102F20009E83AF83B8879C01AD01C701B6010E94A3
:102F30007D2487FF0AC08D819E81AF81B885E98598
:102F4000FA8584A395A3A6A3B7A3A985BA851C96E1
:102F50002D913D914D915C911F97C301B2010E944B
:102F6000D025E985FA8524A135A146A157A10E9463
:102F700019246B017C01A985BA8598962D913D9104
:102F80004D915C919B97C501B4010E941824E9857D
:102F9000FA8524893589468957890E94D0259B0165
:102FA000AC01C701B6010E9418246B017C01212FDE
:102FB000302F432D522D0E94CC251816DCF0A98508
:102FC000BA859E961C919E979F960C919F97D0963E
:102FD0003C90D097D1962C90212F302F432D522DFD
:102FE000B601C7010E947D2487FD04C01C2D0D2D54
:102FF0003E2C2F2CA985BA855C96ED91FC915D97AE
:10300000812F902FA32DB22D80839183A283B38330
:10301000E985FA8580A691A6A2A6B3A689819A81A0
:10302000AB81BC8180A391A3A2A3B3A32A960FB6C0
:10303000F894DEBF0FBECDBFDF91CF911F910F91EE
:10304000FF90EF90DF90CF90BF90AF909F908F90C8
:103050007F906F905F904F903F902F9008952F92A8
:103060003F924F925F926F927F928F929F92AF9218
:10307000BF92CF92DF92EF92FF920F931F93CF9365
:10308000DF9300D000D0CDB7DEB71C012A013B0191
:103090004801590120E030E0A901C301B2010E94BA
:1030A0007D2487FD7AC020E030E0A901C501B4018C
:1030B0000E947D2487FD71C020E030E0A901C70196
:1030C000B6010E947D2487FD68C0F10140825182D3
:1030D0006282738284829582A682B782C086D186FC
:1030E000E286F38664A575A5882777FD8095982FDD
:1030F0000E941C2520E030E04AE754E40E9481242D
:1031000069837A838B839C83F10144865586668626
:1031100077869B01AC01C501B4010E94D0254B010B
:103120005C01F101608B718B828B938B29813A81D9
:103130004B815C81C701B6010E9481246B017C0137
:10314000F101648B758B868B978B808D918D0197A8
:1031500021F5A301920160E070E0CB010E941824E8
:10316000F1016487758786879787A501940160E0E0
:1031700070E0CB010E941824F101608B718B828B6F
:10318000938BA701960160E070E0CB010E941824A8
:10319000F101648B758B868B978B0F900F900F903E
:1031A0000F90DF91CF911F910F91FF90EF90DF90E3
:1031B000CF90BF90AF909F908F907F906F905F90D7
:1031C0004F903F902F9008952F923F924F925F9291
:1031D0006F927F928F929F92AF92BF92CF92DF9227
:1031E000EF92FF920F931F93CF93DF93EC016A014D
:1031F0007B0148015901A9019801C701B6010E944C
:10320000CC2587FF4EC0CEA6DFA6E8AAF9AA8AAAD7
:103210009BAAACAABDAA8EA9882309F442C02C8C13
:103220003D8CF1014080518062807380A501940142
:10323000C301B2010E94CC25181634F4F10180823A
:103240009182A282B3820DC0A7019601C301B2018F
:103250000E947D2487FF05C0F101C082D182E282F5
:10326000F3828CA09DA0AEA0BFA0CAA8DBA8ECA84A
:10327000FDA8A7019601C501B4010E94CC2518162E
:1032800064F0CEA4DFA4E8A8F9A8A7019601C501BF
:10329000B4010E947D2487FF04C0CCA2DDA2EEA26F
:1032A000FFA2DF91CF911F910F91FF90EF90DF90E0
:1032B000CF90BF90AF909F908F907F906F905F90D6
:1032C0004F903F902F9008958F929F92AF92BF9210
:1032D000CF92DF92EF92FF92CF93DF93EC01EC8DD0
:1032E000FD8D40815181628173814CA35DA36EA3EA
:1032F0007FA3EA8DFB8D408151816281738148A754
:1033000059A76AA77BA70E944121CCA4DDA4EE2483
:10331000D7FCE094FE2C6C197D098E099F0968A3E7
:1033200079A38AA39BA38CA09DA0AEA0BFA0CAA88E
:10333000DBA8ECA8FDA8A7019601C501B4010E9475
:10334000CC25181664F0CEA4DFA4E8A8F9A8A7013C
:103350009601C501B4010E947D2487FF04C0CCA260
:10336000DDA2EEA2FFA2DF91CF91FF90EF90DF9060
:10337000CF90BF90AF909F908F9008951F93CF9361
:10338000DF93EC0111E06130710509F010E08EA9C6
:1033900091E08927181303C0CE010E9464191EAB67
:1033A000DF91CF911F9108950F931F93CF93DF93D8
:1033B000EC018B018EA9882361F1888D998D6817A6
:1033C000790739F12C853D854E855F8560E070E099
:1033D000CB010E9418246C877D878E879F87288960
:1033E00039894A895B8960E070E0CB010E9418242A
:1033F000688B798B8A8B9B8B2C893D894E895F8961
:1034000060E070E0CB010E9418246C8B7D8B8E8B6A
:103410009F8B198F088FDF91CF911F910F91089586
:103420002F923F924F925F926F927F928F929F92D4
:10343000AF92BF92CF92DF92EF92FF920F931F93C2
:10344000CF93DF93CDB7DEB728970FB6F894DEBFE2
:103450000FBECDBF4C017A8369831A013C832B8355
:1034600027013801AD82BE82CF82D88600E010E00D
:103470002FE733E440E050E0BA010E94E41884E60C
:1034800090E0F40195A784A769A17AA1C4010E94E4
:10349000D419CD8CDE8CEF8CF8A00D811E812F818C
:1034A0003885B301A201C4010E942F180E94412156
:1034B000F40144A455A4662457FC6094762C641946
:1034C00075098609970960A371A382A393A316AA1D
:1034D000358E248E89819A81938F828F8B819C81F6
:1034E000978F868F28960FB6F894DEBF0FBECDBF9C
:1034F000DF91CF911F910F91FF90EF90DF90CF90D0
:10350000BF90AF909F908F907F906F905F904F9003
:103510003F902F900895FC01EF5FFE4F11821082C3
:1035200032962FEF208331961182108232961182CB
:103530001082329611821082329610823196108259
:1035400031967183608326E040EC52E160E070E0E8
:1035500082EA91E00C94B6230F93CF93DF93FB01A3
:10356000C901011103C026E2208331964083EF0197
:1035700022962DE321834AE0BE010E94DB29BE0191
:10358000CB016F5F7F4FFC0120812111F9CFDF91CB
:10359000CF910F910895EF920F931F93CF93DF93E5
:1035A000FB01C901B801E11003C026E22083319676
:1035B0004083EF0122962DE321832AE0AE010E9491
:1035C000032AAE01CA014F5F5F4FFC012081211128
:1035D000F9CFDF91CF911F910F91EF900895AF92A6
:1035E000CF92EF92FF920F931F93CF93DF93FB0144
:1035F000842FB901A80197010C2DA11003C096E2F8
:10360000908331968083EF0122968DE38183CE01F2
:103610000E947E0F9E01C9012F5F3F4FFC01408138
:103620004111F9CFDF91CF911F910F91FF90EF9052
:10363000CF90AF9008950F93CF93DF93FB010111CB
:1036400003C086E2808331964083EF0122968DE3AA
:103650008183B901CE010E949E299E01C9012F5F7D
:103660003F4FFC0140814111F9CFDF91CF910F9184
:1036700008950F93CF93DF93FB01011103C086E2FE
:10368000808331964083EF0122968DE38183B901D7
:10369000CE010E9470299E01C9012F5F3F4FFC019E
:1036A00040814111F9CFDF91CF910F9108952F9271
:1036B0003F924F925F926F927F928F929F92AF92C2
:1036C000CF92DF92EF92FF920F931F93CF93DF93EE
:1036D000CDB7DEB7CA56D1090FB6F894DEBF0FBE1C
:1036E000CDBF4C018091820190918301FC01EC528D
:1036F000FD4F4080518025E04216510440F4F20114
:10370000EE0FFF1FE35AFE4FC080D18004C070EF60
:10371000C72E74E0D72E0E9477078430910540F4BD
:10372000FC01EE0FFF1FEB5AFE4F2080318004C0DA
:1037300050EF252E54E0352E609082017090830169
:10374000F401E85FFE4F0081118120E030E0EE24BB
:10375000E39444E6CE010196AB969FAF8EAFAB9754
:10376000BC01C4010E94CB1A00E0960143E7BC01F2
:10377000C4010E94391B7C01F3016481758186813B
:1037800097810E94E9249B014CE6B701C4010E9485
:10379000AC1AF3010085118522853385A12CC12C3B
:1037A000EE24E394F12C42E6BC01C4010E94EF1A1E
:1037B00000E0910144E7BC01C4010E94391BE09183
:1037C0008201F09183010190F081E02D268D30E09F
:1037D0004FE6BC01C4010E94AC1A1C01C201039750
:1037E000029708F04DC00E944121F301E15BFC4FBC
:1037F0000081118122813381601B710B820B930B3D
:1038000028EE33E040E050E00E94982789019A01B9
:10381000E12C45E6B101C4010E94CB1AF301E15944
:10382000FC4F008111812281338142E7BC01C40138
:103830000E94CB1A7C01C3010E94600700E09C013A
:1038400045E7B701C4010E94AC1A7C01C3010E9484
:1038500068079C0143E6B701C4010E94AC1A1C0131
:10386000F301E750FD4F208131812115310541F0F1
:10387000235F3F4F40E7BC01C4010E941B1B1C019A
:103880008FEFA6968FAFA69780E8A9968FAFA997DE
:1038900088E690E0A8969FAF8EAFA897E091A2012E
:1038A000F091A3010280F381E02D44E050E0BE01DD
:1038B0006B597F4F82EA91E00995FFEF2F1A3F0A7B
:1038C000AB968EAD9FADAB97281A390AE091A20155
:1038D000F091A3010280F381E02DA101BE016F5F91
:1038E0007F4F82EA91E00995E4E62E1631047CF4DC
:1038F000E091A201F091A3010190F081E02D60E23E
:1039000082EA91E009959FEF291A390AEDCFC6594D
:10391000DF4F0FB6F894DEBF0FBECDBFDF91CF9162
:103920001F910F91FF90EF90DF90CF90AF909F90FD
:103930008F907F906F905F904F903F902F90089561
:10394000DF92EF92FF920F931F93CF93DF93CDB748
:10395000DEB76E970FB6F894DEBF0FBECDBF8C01F9
:10396000FB018381F82FFF70DF2E807F803159F0BB
:10397000803449F581E0F801E55FFE4F8083C8019E
:103980000E94571B20C0FB01E40FF51F10827B0132
:1039900084E0E80EF11CC7010E948204B701CE0149
:1039A00001960E949C05BE016F5F7F4F809182014E
:1039B000909183010E94B90C8E899F89F801E85F7C
:1039C000FE4F91838083F801ED5FFE4FD0826E96AB
:1039D0000FB6F894DEBF0FBECDBFDF91CF911F9120
:1039E0000F91FF90EF90DF9008953F924F925F927A
:1039F0006F927F928F929F92AF92BF92CF92DF92FF
:103A0000EF92FF920F931F93CF93DF93EC0182EA23
:103A100091E00E94D3226C018E010F5F1E4FD801EE
:103A20008D919C91760103970CF070C0FE01E65FCA
:103A3000FE4F5F013324339444244394512C4E01B0
:103A4000FCEF8F1AFEEF9F0A42E0642E712CE11406
:103A5000F10409F45BC082EA91E00E94EC2221E0CB
:103A6000E21AF108D8012D913C91119721303105CE
:103A700039F49927F401918380836D927C92E7CF8A
:103A80002230310589F5982F8827FE01EC5FFE4F23
:103A900020813181822B932B813021E0920710F01D
:103AA00080E091E091838083808191819C0124500A
:103AB00031092D3F3105A0F423E030E0D8012D93EA
:103AC0003C934FEF488389839A83DE01A65FBE4F04
:103AD0001C9214972D933C9303979183808316C077
:103AE000F8011182108212C08F3F41F4D5018C91F0
:103AF000811109C0F80151824082A9CF8E3F19F48B
:103B0000D5013C92A4CFF5011082A1CFD8018D91AF
:103B10009C91039709F05BC0FE01EC5FFE4F5F01D3
:103B2000CE01865F9E4F3C01DE01AA5FBE4F4D0174
:103B3000552453941E141F049CF0F501808191813B
:103B4000892B09F044C0FE01EA5FFE4F408151819C
:103B5000BE01CE010E94A01CF8011182108237C064
:103B6000D5018D919C91892B41F382EA91E00E94CD
:103B7000EC22B1E0EB1AF108F501208131812150EE
:103B80003109318320838E3F19F4D3015C9211C037
:103B9000F3019081992359F08F3F49F4D4012D917D
:103BA0003C911197215031092D933C9302C0F301B0
:103BB0001082D4012D913C911197A9014F5F5F4F65
:103BC0004D935C93FE01E20FF31F8083B3CF81E03E
:103BD000EC14FD040CF080E0DF91CF911F910F9168
:103BE000FF90EF90DF90CF90BF90AF909F908F901D
:103BF0007F906F905F904F903F900895CF93DF93A9
:103C0000EC01CE010E94F51C8111FBCFDF91CF9119
:103C10000895CF93DF93EC0160E08E810E941C2019
:103C200081E090E00E94982161E08E810E941C203A
:103C300081E090E00E94982160E08E810E941C202B
:103C400084E690E0DF91CF910C949821CF92DF929F
:103C5000EF92FF920F931F93CF93DF937C01C0E00D
:103C6000D0E0C62ED12C87010C0F1D1F61E0F8019A
:103C700087810E94E31FB6010C2E02C075956795DF
:103C80000A94E2F76170F80187810E941C20219656
:103C9000C430D10541F7C701DF91CF911F910F913A
:103CA000FF90EF90DF90CF900C94091ECF92DF929F
:103CB000EF92FF920F931F93CF93DF937C01C0E0AD
:103CC000D0E0C62ED12C87010C0F1D1F61E0F8013A
:103CD00087810E94E31FB6010C2E02C0759567957F
:103CE0000A94E2F76170F80187810E941C202196F6
:103CF000C830D10541F7C701DF91CF911F910F91D6
:103D0000FF90EF90DF90CF900C94091E1F93CF93FC
:103D1000DF93EC01162F642F8C810E941C208D8173
:103D20008F3F19F060E00E941C208F85612F84FF77
:103D300006C0CE01DF91CF911F910C94561E70E00A
:103D400084E0759567958A95E1F7CE010E94261E5D
:103D5000612FCE01DF91CF911F910C94261E40E080
:103D60000C94861E61E00E94AF1E80ED97E00C94DB
:103D70009821443008F043E0FC012389421710F0F9
:103D80004FEF420FFC01E40FF11D2489260F20683C
:103D9000622F0C94AF1EFC016089262F2460208BBB
:103DA0006C600C94AF1ECF93DF93EC01423018F09F
:103DB0008F8588608F874B8B1C8A80E48D8B6E8B00
:103DC00070E0605C7F4F6F8B222329F0413019F443
:103DD0008F8584608F8780E593EC0E94982160E056
:103DE0008C810E941C2060E08E810E941C208D81AD
:103DF0008F3F19F060E00E941C206F8564FD1DC09C
:103E000063E0CE010E94261E84E991E10E94982180
:103E100063E0CE010E94261E84E991E10E94982170
:103E200063E0CE010E94261E86E990E00E94982160
:103E300062E0CE010E94261E16C06062CE010E9482
:103E4000AF1E84E991E10E9498216F856062CE01E6
:103E50000E94AF1E86E990E00E9498216F85606203
:103E6000CE010E94AF1E6F856062CE010E94AF1E20
:103E700084E0888BCE010E94CB1ECE010E94B21E30
:103E800082E0898B66E0CE01DF91CF910C94AF1E6A
:103E90006F927F928F92AF92CF92EF920F931F9378
:103EA000CF93DF93CDB7DEB73C01162F842F5D850E
:103EB0004E853F859889F301848325830683E782B5
:103EC000C086A1868286538744873587968761E0BE
:103ED0000E94E31FF30185818F3F19F061E00E948A
:103EE000E31F61E0F30186810E94E31F112319F0B3
:103EF000F301178603C080E1F301878720E041E0EA
:103F000060E1C301DF91CF911F910F91EF90CF90AE
:103F1000AF908F907F906F900C94D31E8F92AF9242
:103F2000CF92EF920F93DC0113961C921E92129780
:103F3000EBE6F1E0ED93FC931F921F921F921F920C
:103F40008C2CAE2CC02EE22E042F2FEF462F61E0DA
:103F50000E94481F0F900F900F900F900F91EF90BD
:103F6000CF90AF908F90089541E00E94861E81E02F
:103F700090E00895833081F028F4813099F0823008
:103F8000A1F008958730A9F08830B9F08430D1F4D9
:103F9000809180008F7D03C0809180008F77809317
:103FA0008000089584B58F7702C084B58F7D84BD6D
:103FB00008958091B0008F7703C08091B0008F7D0D
:103FC0008093B0000895CF93DF9390E0FC01ED5C07
:103FD000FA4F2491FC01E95BFA4F8491882349F15F
:103FE00090E0880F991FFC01E159FA4FA591B49117
:103FF0008B599A4FFC01C591D4919FB7611108C0AC
:10400000F8948C91209582238C93888182230AC016
:10401000623051F4F8948C91322F309583238C9335
:104020008881822B888304C0F8948C91822B8C9396
:104030009FBFDF91CF9108950F931F93CF93DF938D
:104040001F92CDB7DEB7282F30E0F901E15EFA4FBD
:104050008491F901ED5CFA4F1491F901E95BFA4F93
:1040600004910023C9F0882321F069830E94BA1FBC
:104070006981E02FF0E0EE0FFF1FEB59FA4FA59199
:10408000B4919FB7F8948C91611103C0109581236E
:1040900001C0812B8C939FBF0F90DF91CF911F9117
:1040A0000F910895CF93DF93282F30E0F901E15E5F
:1040B000FA4F8491F901ED5CFA4FD491F901E95B73
:1040C000FA4FC491CC2391F081110E94BA1FEC2FBA
:1040D000F0E0EE0FFF1FE55AFA4FA591B4912C9135
:1040E0002D2381E090E021F480E002C080E090E0A8
:1040F000DF91CF9108958E3008F08E508770209117
:10410000060190E4299F90011124822B80937C006A
:1041100080917A00806480937A0080917A0086FD95
:10412000FCCF809178002091790090E0922B089547
:104130001F93CF93DF93182FEB0161E00E94E31FE1
:10414000209711F460E004C0CF3FD10539F461E05D
:10415000812FDF91CF911F910C941C20E12FF0E073
:10416000E15EFA4FE491E330F9F048F4E130B9F060
:10417000E230A1F584B5806284BDC8BD34C0E730AB
:10418000E9F0E83019F1E43049F58091800080626F
:1041900080938000D0938B00C0938A0024C084B5A4
:1041A000806884BDC7BD1FC08091800080688093F7
:1041B0008000D0938900C093880015C08091B00022
:1041C00080688093B000C093B3000DC08091B000B0
:1041D00080628093B000C093B40005C0C038D105A0
:1041E0000CF0B5CFAFCFDF91CF911F9108951F9203
:1041F0000F920FB60F9211242F933F938F939F939B
:10420000AF93BF9380919A0190919B01A0919C01E3
:10421000B0919D013091990123E0230F2D3720F4B7
:104220000196A11DB11D05C026E8230F0296A11D10
:10423000B11D2093990180939A0190939B01A093C3
:104240009C01B0939D0180919E0190919F01A0914E
:10425000A001B091A1010196A11DB11D80939E0105
:1042600090939F01A093A001B093A101BF91AF9142
:104270009F918F913F912F910F900FBE0F901F90A4
:1042800018952FB7F89460919A0170919B018091D5
:104290009C0190919D012FBF08953FB7F8948091A4
:1042A0009E0190919F01A091A001B091A10126B51E
:1042B000A89B05C02F3F19F00196A11DB11D3FBF5E
:1042C0006627782F892F9A2F620F711D811D911DEE
:1042D00042E0660F771F881F991F4A95D1F708950E
:1042E000CF92DF92EF92FF92CF93DF936B017C012D
:1042F0000E944D21EB01C114D104E104F10489F0C5
:104300000E94DD210E944D216C1B7D0B683E734095
:1043100090F381E0C81AD108E108F108C851DC4FD8
:10432000EACFDF91CF91FF90EF90DF90CF9008958B
:10433000019739F0880F991F880F991F02970197ED
:10434000F1F70895789484B5826084BD84B5816066
:1043500084BD85B5826085BD85B5816085BDEEE68D
:10436000F0E0808181608083E1E8F0E0108280816C
:1043700082608083808181608083E0E8F0E08081DA
:1043800081608083E1EBF0E0808184608083E0EBFA
:10439000F0E0808181608083EAE7F0E080818460E2
:1043A000808380818260808380818160808380813E
:1043B000806880831092C10008950895CF92DF92A3
:1043C000EF92FF920F931F93CF93DF936C017A01CB
:1043D000EB01E60EF71E00E010E0CE15DF0561F000
:1043E0006991D601ED91FC910190F081E02DC6011B
:1043F0000995080F191FF1CFC801DF91CF911F91C7
:104400000F91FF90EF90DF90CF90089561157105A7
:1044100081F0DB010D900020E9F7AD014150510919
:10442000461B570BDC01ED91FC910280F381E02DDE
:10443000099480E090E008950C9406221F920F9258
:104440000FB60F9211242F938F939F93EF93FF93A7
:10445000E091B201F091B3018081E091B801F09157
:10446000B90182FD12C090818091BB018F5F8F7373
:104470002091BC01821751F0E091BB01F0E0EE55B4
:10448000FE4F958F8093BB0101C08081FF91EF911A
:104490009F918F912F910F900FBE0F901F901895A5
:1044A0001F920F920FB60F9211242F933F934F93A9
:1044B0005F936F937F938F939F93AF93BF93EF938C
:1044C000FF9382EA91E00E940E23FF91EF91BF914A
:1044D000AF919F918F917F916F915F914F913F919C
:1044E0002F910F900FBE0F901F90189582EA91E0C8
:1044F0000E94D32221E0892B09F420E0822F089525
:104500001092A5011092A40188EE93E0A0E0B0E023
:104510008093A6019093A701A093A801B093A9014D
:1045200083E791E09093A3018093A20185EC90E052
:104530009093AF018093AE0184EC90E09093B10131
:104540008093B00180EC90E09093B3018093B2012E
:1045500081EC90E09093B5018093B40182EC90E0FF
:104560009093B7018093B60186EC90E09093B901E7
:104570008093B8011092BB011092BC011092BD0152
:104580001092BE01089508950E94A2210E94C322A4
:104590000E940F06C0E0D3E20E9431062097E1F3AB
:1045A0000E940023F9CFFC01818D228D90E0805C78
:1045B0009F4F821B91098F7399270895FC01918D5C
:1045C000828D981731F0828DE80FF11D858D90E076
:1045D00008958FEF9FEF0895FC01918D828D9817BC
:1045E00061F0828DDF01A80FB11D5D968C91928DD7
:1045F0009F5F9F73928F90E008958FEF9FEF0895D4
:1046000086E792E2892B49F080E090E0892B29F03F
:104610000E94762281110C9400000895FC01848D83
:10462000DF01A80FB11DA35ABF4F2C91848D90E0DC
:1046300001968F739927848FA689B7892C93A089B7
:10464000B1898C9180648C93938D848D981306C06E
:104650000288F389E02D80818F7D80830895CF9338
:10466000DF93EC01888D8823C9F0EA89FB8980817A
:1046700085FD05C0A889B9898C9186FD0FC00FB64C
:1046800007FCF5CF808185FFF2CFA889B9898C918D
:1046900085FFEDCFCE010E940E23E7CFDF91CF91B2
:1046A0000895CF92DF92FF920F931F93CF93DF93E2
:1046B0001F92CDB7DEB76C01DC015B969C915B97D6
:1046C0005C968C915C97981307C05096ED91FC9185
:1046D0005197808185FD32C0F601038D10E00F5F98
:1046E0001F4F0F731127F02EF601848DF81211C0A1
:1046F0000FB607FCF9CFD6015096ED91FC9151977A
:10470000808185FFF1CFC60169830E940E236981F4
:10471000EBCF838DE80FF11DE35AFF4F6083D60185
:104720005B960C935B975296ED91FC915397808129
:104730008062808381E058968C930DC0D601569696
:10474000ED91FC91579760835096ED91FC915197B4
:1047500080818064808381E090E00F90DF91CF9131
:104760001F910F91FF90DF90CF900895BF92CF924D
:10477000DF92EF92FF92CF93DF93EC016A017B010E
:10478000B22EE889F98982E08083411581EE5807CD
:1047900061057105A1F060E079E08DE390E0A7018B
:1047A00096010E94982721503109410951095695D7
:1047B000479537952795211580E1380798F0E889C6
:1047C000F989108260E874E88EE190E0A701960113
:1047D0000E94982721503109410951095695479562
:1047E00037952795EC85FD853083EE85FF85208301
:1047F000188EEC89FD89B082EA89FB89808180610D
:104800008083EA89FB89808188608083EA89FB89CB
:10481000808180688083EA89FB8980818F7D8083A5
:10482000DF91CF91FF90EF90DF90CF90BF900895F0
:104830005058BB27AA270ED075C166D130F06BD176
:1048400020F031F49F3F11F41EF45BC10EF4E095AB
:10485000E7FB51C1E92F77D180F3BA1762077307DD
:104860008407950718F071F49EF58FC10EF4E0955A
:104870000B2EBA2FA02D0B01B90190010C01CA011A
:10488000A0011124FF27591B99F0593F50F4503EC5
:1048900068F11A16F040A22F232F342F4427585FB7
:1048A000F3CF469537952795A795F0405395C9F7CF
:1048B0007EF41F16BA0B620B730B840BBAF0915087
:1048C000A1F0FF0FBB1F661F771F881FC2F70EC026
:1048D000BA0F621F731F841F48F4879577956795F9
:1048E000B795F7959E3F08F0B3CF9395880F08F0E2
:1048F0009927EE0F979587950895D9D008F481E010
:1049000008950CD00FC107D140F0FED030F021F453
:104910005F3F19F0F0C0511139C1F3C014D198F3C1
:104920009923C9F35523B1F3951B550BBB27AA2730
:1049300062177307840738F09F5F5F4F220F331FA2
:10494000441FAA1FA9F333D00E2E3AF0E0E830D06E
:1049500091505040E695001CCAF729D0FE2F27D071
:10496000660F771F881FBB1F261737074807AB073F
:10497000B0E809F0BB0B802DBF01FF2793585F4FB4
:104980002AF09E3F510568F0B6C000C15F3FECF3CE
:10499000983EDCF3869577956795B795F7959F5F79
:1049A000C9F7880F911D9695879597F90895E1E0CD
:1049B000660F771F881FBB1F621773078407BA072C
:1049C00020F0621B730B840BBA0BEE1F88F7E09587
:1049D000089504D06894B111D9C00895BCD088F06E
:1049E0009F5790F0B92F9927B751A0F0D1F0660FDB
:1049F000771F881F991F1AF0BA95C9F712C0B130F6
:104A000081F0C3D0B1E00895C0C0672F782F882708
:104A1000B85F39F0B93FCCF3869577956795B39534
:104A2000D9F73EF490958095709561957F4F8F4FA3
:104A30009F4F0895E89409C097FB3EF490958095A8
:104A4000709561957F4F8F4F9F4F9923A9F0F92F54
:104A500096E9BB279395F695879577956795B795D2
:104A6000F111F8CFFAF4BB0F11F460FF1BC06F5FB8
:104A70007F4F8F4F9F4F16C0882311F096E911C0CA
:104A8000772321F09EE8872F762F05C0662371F0EB
:104A900096E8862F70E060E02AF09A95660F771FFF
:104AA000881FDAF7880F9695879597F90895990FDB
:104AB0000008550FAA0BE0E8FEEF16161706E807E8
:104AC000F907C0F012161306E407F50798F0621B09
:104AD000730B840B950B39F40A2661F0232B242BDE
:104AE000252B21F408950A2609F4A140A6958FEFFD
:104AF000811D811D089597F99F6780E870E060E04F
:104B000008959FEF80EC089500240A941616170666
:104B100018060906089500240A94121613061406AE
:104B200005060895092E0394000C11F4882352F011
:104B3000BB0F40F4BF2B11F460FF04C06F5F7F4FC9
:104B40008F4F9F4F089557FD9058440F551F59F0B0
:104B50005F3F71F04795880F97FB991F61F09F3F6A
:104B600079F087950895121613061406551FF2CF93
:104B70004695F1DF08C0161617061806991FF1CFE3
:104B800086957105610508940895E894BB2766270A
:104B90007727CB0197F908958ADF08F48FEF0895FE
:104BA0000BD0C0CFB1DF28F0B6DF18F0952309F0A5
:104BB000A2CFA7CF1124EACFC6DFA0F3959FD1F3F0
:104BC000950F50E0551F629FF001729FBB27F00DBB
:104BD000B11D639FAA27F00DB11DAA1F649F662710
:104BE000B00DA11D661F829F2227B00DA11D621F5F
:104BF000739FB00DA11D621F839FA00D611D221F19
:104C0000749F3327A00D611D231F849F600D211DFC
:104C1000822F762F6A2F11249F5750408AF0E1F09F
:104C200088234AF0EE0FFF1FBB1F661F771F881FE8
:104C300091505040A9F79E3F510570F05CCFA6CF30
:104C40005F3FECF3983EDCF3869577956795B795D3
:104C5000F795E7959F5FC1F7FE2B880F911D9695FD
:104C6000879597F90895FA01EE0FFF1F30962105F9
:104C7000310599F16115710561F48038BFE39B0737
:104C800049F168949038810561F08038BFEF9B0747
:104C900041F0992342F5FF3FE1053105210511F16E
:104CA000E8940894E795D901AA2329F4AB2FBE2FE5
:104CB000F85FD0F310C0FF5F70F4A695E0F7F73906
:104CC00050F019F0FF3A38F49F779F930CD00F9073
:104CD00007FC905808953EF014CF60E070E080E843
:104CE0009FE308954FE79F775F934F933F932F93F1
:104CF0009ED02F913F914F915F9152DF05C019F4E3
:104D00000EF0F9CE42CFFDCE26DFC8F39638C0F7BD
:104D100007F80F92E8942BE33AEA48EB5FE74EDF9F
:104D20000F920F920F924DB75EB70F92C0D0E8E688
:104D3000F0E016D04F915F91EF91FF91E595EE1F56
:104D4000FF1F49F0FE57E0684427EE0F441FFA9515
:104D5000E1F74195550B32D00F9007FE26C008951C
:104D6000DF93CF931F930F93FF92EF92DF927B011C
:104D70008C01689405C0DA2EEF011EDFFE01E89475
:104D8000A5912591359145915591AEF3EF0162DDE5
:104D9000FE019701A801DA9479F7DF90EF90FF9078
:104DA0000F911F91CF91DF9108959B01AC0160E0BD
:104DB00070E080E89FE3A5CD9ECEACC0CCDEE8F3EA
:104DC0009923D9F3940F511DBBF39150504094F0A7
:104DD00059F0882332F0660F771F881F915050409A
:104DE000C1F79E3F510544F7880F911D9695879511
:104DF00097F908955F3FACF0983E9CF0BB278695ED
:104E000077956795B79508F4B1609395C1F7BB0F97
:104E100058F711F460FFE8CF6F5F7F4F8F4F9F4FC0
:104E2000E3CFB4CE0EF076C06CCE689464CE93DE41
:104E3000C8F39923D1F3C6F3DF93CF931F930F9356
:104E4000FF92C92FDD2788232AF02197660F771F4D
:104E5000881FDAF720E030E040E85FEB9FE3883915
:104E600020F0803E30F021968F77E3DCE0E9F0E03F
:104E700003C0DFDCEDEBF0E073DF8B01BE01EC0182
:104E8000FB2E6F5771097595771F880B990BD4DD31
:104E900028E132E741E35FE38FDEAF2D9801AE01F9
:104EA000FF900F911F91CF91DF91D4DC3BCEFA019F
:104EB000DC01AA0FBB1F9B01AC01BF5728F42227BE
:104EC0003327442750781FC0B75188F4AB2F0024F4
:104ED000469537952795011CA395D2F3002069F0DC
:104EE000220F331F441FB395DAF30DD0A1CC6130EC
:104EF0007105A0E88A07B94630F49B01AC0166272A
:104F0000772788279078309621F020833183428359
:104F1000538308959F3F31F0915020F48795779502
:104F20006795B795880F911D9695879597F9089580
:104F3000A1E21A2EAA1BBB1BFD010DC0AA1FBB1F9D
:104F4000EE1FFF1FA217B307E407F50720F0A21B0F
:104F5000B30BE40BF50B661F771F881F991F1A947C
:104F600069F760957095809590959B01AC01BD01A6
:104F7000CF010895052E97FB1EF400940E94D127BF
:104F800057FD07D00E94982707FC03D04EF40C94DD
:104F9000D12750954095309521953F4F4F4F5F4F0A
:104FA000089590958095709561957F4F8F4F9F4F95
:104FB0000895A29FB001B39FC001A39F700D811DF2
:104FC0001124911DB29F700D811D1124911D089512
:104FD0000E94D927B7FF0895821B930B08950E9462
:104FE000D927A59F900DB49F900DA49F800D911D72
:104FF00011240895EE0FFF1F0590F491E02D099400
:10500000CF93DF938230910510F482E090E0E0913D
:105010004102F091420220E030E0A0E0B0E03097A1
:1050200039F14081518148175907B8F0481759079D
:1050300071F482819381109729F013969C938E933B
:1050400012972CC0909342028093410227C02115F1
:10505000310531F04217530718F0A901DB0101C0F7
:10506000EF019A01BD01DF010280F381E02DD7CF6E
:1050700021153105F9F0281B390B2430310580F456
:105080008A819B816115710521F0FB0193838283E5
:1050900004C09093420280934102FE01329644C0C4
:1050A000FE01E20FF31F819391932250310939835E
:1050B00028833AC020913F0230914002232B41F4D3
:1050C00020910201309103013093400220933F026E
:1050D00020910001309101012115310541F42DB7D6
:1050E0003EB74091040150910501241B350BE0911E
:1050F0003F02F0914002E217F307A0F42E1B3F0B92
:105100002817390778F0AC014E5F5F4F2417350739
:1051100048F04E0F5F1F5093400240933F0281932F
:10512000919302C0E0E0F0E0CF01DF91CF910895CC
:10513000CF93DF93009709F487C0FC013297138265
:105140001282C0914102D0914202209781F42081C5
:105150003181280F391F80913F02909140028217C0
:10516000930779F5F0934002E0933F026DC0DE01B2
:1051700020E030E0AE17BF0750F412964D915C91DD
:1051800013979D014115510509F1DA01F3CFB3835E
:10519000A28340815181840F951F8A179B0771F468
:1051A0008D919C911197840F951F02969183808316
:1051B00012968D919C9113979383828321153105CB
:1051C00029F4F0934202E09341023EC0D9011396C4
:1051D000FC93EE9312974D915D91A40FB51FEA17C2
:1051E000FB0779F480819181840F951F0296D90184
:1051F00011969C938E938281938113969C938E93A8
:105200001297E0E0F0E08A819B81009719F0FE019F
:10521000EC01F9CFCE01029628813981820F931FCC
:1052200020913F02309140022817390769F43097E6
:1052300029F4109242021092410202C0138212829B
:10524000D0934002C0933F02DF91CF91089566272B
:1052500077270C94492CFC0188279927E894219101
:105260002032E9F3293010F02E30C8F32B3241F010
:105270002D3239F4689404C00E94FB29820F911DDD
:10528000219120532A30C0F31EF4909581959F4FB1
:1052900008951F93FC0199278827BC01E894119178
:1052A0001032E9F3193010F01E30C8F31B3251F000
:1052B0001D3249F4689406C00E94E629610F711DF1
:1052C000811D911D119110531A30B0F33EF4909549
:1052D0008095709561957F4F8F4F9F4F1F910895D7
:1052E000FB01DC0105900D920020E1F70895FB0120
:1052F000DC014150504030F08D910590801919F437
:105300000020B9F7881B990B089540E851E00E94EE
:10531000B4290895FC018191861721F08823D9F7DB
:10532000992708953197CF010895FB01DC018D91F4
:10533000019080190110D9F3990B0895FB01DC014C
:1053400001900D920020E1F70895FB01DC0141502E
:10535000504048F001900D920020C9F701C01D9205
:1053600041505040E0F70895FA01A191B0810097B3
:1053700019F41097E1F0CD01DC01CD010D90002072
:1053800011F4C00113C0FB012191222319F0201553
:10539000D9F7F3CFFB012191201519F41E92119634
:1053A00006C02223C1F70D900020A1F7D001FA0119
:1053B000A193B0830895BB274A3031F4992322F496
:1053C000BDE2909581959F4F0C94262A592F482F26
:1053D000372F262F660F771F881F991F660F771F9D
:1053E000881F991F620F731F841F951F660F771FF9
:1053F000881F991F08957AE0979F902D879F802D91
:10540000910D11240895BB27FA01A62F621771058B
:1054100081059105330B30FB66F0AA27660F771FD5
:10542000881F991FAA1FA21710F0A21B639538505E
:10543000A9F7A05DAA3308F0A95DA19336F7B111D1
:10544000B1931082CA010C94E22DBB27FB015527B2
:10545000AA27880F991FAA1FA41710F0A41B8395D1
:105460005051B9F7A05DAA3308F0A95DA193009748
:1054700079F7B111B1931192CB010C94E22DAEE00A
:10548000B0E0E5E4FAE20C94932E0D891E898EE0DB
:105490008C831A8309838FEF9FE79E838D83AE01F0
:1054A000475E5F4F6F89788DCE0101960E94612A19
:1054B000EF81F885E00FF11F10822E96E4E00C9446
:1054C000AF2EACE0B0E0E7E6FAE20C94852E7C016A
:1054D0006B018A01FC0117821682838181FFBDC1A5
:1054E000CE0101964C01F7019381F60193FD859160
:1054F00093FF81916F01882309F4ABC1853239F4A0
:1055000093FD859193FF81916F01853229F4B70155
:1055100090E00E94F22DE7CF512C312C20E0203278
:10552000A0F48B3269F030F4803259F0833269F4A0
:1055300020612CC08D3239F0803339F4216026C0CF
:105540002260246023C0286021C027FD27C030EDE1
:10555000380F3A3078F426FF06C0FAE05F9E300D2F
:105560001124532E13C08AE0389E300D1124332E9F
:1055700020620CC08E3221F426FD6BC1206406C06F
:105580008C3611F4206802C0883641F4F60193FD90
:10559000859193FF81916F018111C1CF982F9F7DDC
:1055A0009554933028F40C5F1F4FFFE3F9830DC02F
:1055B000833631F0833771F0833509F05BC022C048
:1055C000F801808189830E5F1F4F44244394512C3E
:1055D000540115C03801F2E06F0E711CF801A08073
:1055E000B18026FF03C0652D70E002C06FEF7FEF32
:1055F000C5012C870E94D72D2C0183012C852F7784
:10560000222E17C03801F2E06F0E711CF801A08045
:10561000B18026FF03C0652D70E002C06FEF7FEF01
:10562000C5012C870E94CC2D2C012C852068222EB0
:10563000830123FC1BC0832D90E048165906B0F46B
:10564000B70180E290E00E94F22D3A94F4CFF50188
:1056500027FC859127FE81915F01B70190E00E94B0
:10566000F22D31103A94F1E04F1A510841145104CF
:1056700071F7E5C0843611F0893639F5F80127FF56
:1056800007C060817181828193810C5F1F4F08C0C8
:1056900060817181882777FD8095982F0E5F1F4F5D
:1056A0002F76B22E97FF09C09095809570956195E1
:1056B0007F4F8F4F9F4F2068B22E2AE030E0A40129
:1056C0000E94242EA82EA81844C0853729F42F7EC6
:1056D000B22E2AE030E025C0F22FF97FBF2E8F36A0
:1056E000C1F018F4883579F0B4C0803719F08837E4
:1056F00021F0AFC02F2F2061B22EB4FE0DC08B2D34
:105700008460B82E09C024FF0AC09F2F9660B92E6E
:1057100006C028E030E005C020E130E002C020E112
:1057200032E0F801B7FE07C0608171818281938108
:105730000C5F1F4F06C06081718180E090E00E5FBA
:105740001F4FA4010E94242EA82EA818FB2DFF771E
:10575000BF2EB6FE0BC02B2D2E7FA51450F4B4FE29
:105760000AC0B2FC08C02B2D2E7E05C07A2C2B2D32
:1057700003C07A2C01C0752C24FF0DC0FE01EA0D78
:10578000F11D8081803311F4297E09C022FF06C0FB
:105790007394739404C0822F867809F0739423FD68
:1057A00013C020FF06C05A2C731418F4530C57185A
:1057B000732C731468F4B70180E290E02C870E9488
:1057C000F22D73942C85F5CF731410F4371801C0A3
:1057D000312C24FF12C0B70180E390E02C870E9497
:1057E000F22D2C8522FF17C021FF03C088E590E031
:1057F00002C088E790E0B7010CC0822F867859F08C
:1058000021FD02C080E201C08BE227FD8DE2B701DD
:1058100090E00E94F22DA51438F4B70180E390E0E7
:105820000E94F22D5A94F7CFAA94F401EA0DF11DCB
:105830008081B70190E00E94F22DA110F5CF3320B6
:1058400009F451CEB70180E290E00E94F22D3A9423
:10585000F6CFF7018681978102C08FEF9FEF2C96DC
:10586000E2E10C94A12EF999FECF92BD81BDF89A88
:10587000992780B50895262FF999FECF1FBA92BDBA
:1058800081BD20BD0FB6F894FA9AF99A0FBE019621
:105890000895A0E0B0E0EFE4FCE20C948B2E8B01C5
:1058A0006115710521F0DB018C9311969C93EC013D
:1058B0005E01BFEFAB1ABB0A7501C8808C2D90E06A
:1058C0000E94AC2D892B11F0E501F2CFEDE2CE1252
:1058D00008C07E01F2E0EF0EF11CC980DD24D394F4
:1058E00009C02BE2C21205C07E0142E0E40EF11CA9
:1058F000C980D12CE701219743E050E061E875E0D1
:10590000CE010E94B42D892BC1F4239645E050E0CE
:105910006CE775E0CE010E94B42D892B09F4259621
:105920000115110519F0D801CD93DC93D11006C1F2
:1059300060E070E080E89FE70AC143E050E069E77B
:1059400075E0CE010E94B42D892B59F40115110583
:1059500009F4F9C0B2E0EB0EF11CF801F182E0822B
:10596000F2C0F70160E070E0CB01C0E0D0E07F0161
:10597000A0EDAA2EAC0C29E02A1530F14D2D426085
:10598000B42E2D2D2870D2FE04C0211125C02196E1
:1059900023C021112197A5E0B0E09B01AC010E943A
:1059A000EF27660F771F881F991F6A0D711D811DD4
:1059B000911D6839A9E97A078A07A9E19A0760F079
:1059C000BD2DB660BB2E08C02EEFA2120AC0D3FCBC
:1059D00050C04D2D4860B42E3196D701CC90DB2CB1
:1059E000C6CF2C2D2F7D253409F043C0A081AD32C8
:1059F00041F4BD2DB061DB2E7F0122E0E20EF11CEF
:105A00000CC07F01AB3231F04FEFE41AF40A21E011
:105A100030E006C0A2E0EA0EF11CA18122E030E0F5
:105A2000A053AA3018F0E21AF30A23C0F70120E0CD
:105A300030E02038BCE03B075CF4A901440F551F5F
:105A4000440F551F240F351F220F331F2A0F311DFE
:105A5000AF014F5F5F4F7A01A081A053AA3010F4CD
:105A6000FA01E7CFD4FE03C0319521953109C20F69
:105A7000D31FD1FE09C00115110531F0E1E0EE1A86
:105A8000F108D801ED92FC920E941A252D2D237069
:105A9000233019F04B015C0106C04B015C01B7FAE1
:105AA000B094B7F8B09420E030E0A901C501B4018A
:105AB0000E947D24882309F43EC0D7FF06C0D195FB
:105AC000C195D10908E915E002C000EB15E06801B5
:105AD000B8E1CB1AD10890E2E92EF12CCE15DF0502
