:10000000D0C00000EAC00000E8C00000E6C0000068
:10001000E4C00000E2C00000E0C00000DEC000005C
:10002000DCC00000DAC00000D8C00000EAC5000053
:10003000D4C00000D2C00000D0C00000CEC000007C
:10004000CCC00000CAC00000C8C00000C6C000008C
:10005000C4C00000C2C00000C0C00000BEC000009C
:10006000BCC00000BAC00000B8C00000B6C00000AC
:10007000B4C00000B2C00000B0C00000AEC00000BC
:10008000ACC00000AAC00000A8C00000A6C00000CC
:10009000A4C00000A2C0000012011001000000086E
:1000A000A0205941010001020001090220000101C4
:1000B0000080320904000002080650000705830290
:1000C0004000010705040240000104030904100375
:1000D0004F00700065006E005000430052000000A9
:1000E00016034F00700065006E0050004300520080
:1000F0002000760031000000EB3C904F70656E50A0
:1001000043522000020101000200020011F0110020
:1001100000000000000000000000000000002900B6
:100120000000004F50454E504352202020204641B1
:100130005431362020204F50454E5043522020202D
:100140002008000000000000000000000000000087
:1001500000000000000053544154555320205458CF
:10016000540000000088A13EA13E00000088A13E8E
:1001700002002C0100004155544F52554E20494E6B
:10018000460000000088A13EA13E00000088A13E7C
:100190000300200000005B6175746F72756E5D0D69
:1001A0000A0011241FBECFEFD2E0DEBFCDBF11E0A9
:1001B000A0E0B1E0E0EEF4E102C005900D92A637B8
:1001C000B107D9F711E0A6E7B1E001C01D92A3384D
:1001D000B107E1F724D00C946E0A12CF84B7877F61
:1001E00084BF28E10FB6F89420936000109260005D
:1001F0000FBE8FEC90E09093CD008093CC0086E012
:100200008093CA001092C8002093C900539A5A9A4A
:10021000E9D4E1E8F0E08081816080830895DEDF49
:10022000789480E091E00E947909D4D7FACF0895BC
:10023000089580E091E00C943C0980E091E0E3C7F0
:1002400044C10895923029F0933041F09130E9F49F
:1002500017C020E230E0EAEAF0E01BC0813041F054
:10026000813018F0823089F406C0EAECF0E005C075
:10027000EEECF0E002C0E0EEF0E0249130E009C0E6
:1002800022E130E0E8E9F0E004C020E030E0E0E026
:10029000F0E0DA011196FC93EE93C9010895AF9254
:1002A000BF92CF92DF92EF92FF920F931F93DF9353
:1002B000CF93CDB7DEB78C01ADB6BEB6FC01C58C11
:1002C000D48C828D90E083709070009719F4838DA8
:1002D000882369F080915D01807F856080935D0156
:1002E00084E2809367011092680180E034C0760157
:1002F000F5E2CF16D10418F084E2E82EF12C87E362
:1003000091E0B70140E050E037D6B6016E197F09A1
:100310008DB79EB7861B970B0FB6F8949EBF0FBE86
:100320008DBF019640E050E027D68091E8008E779F
:100330008093E800970140E050E0F80182899389BA
:10034000A489B589821B930BA40BB50B828B938B6D
:10035000A48BB58B81E00FB6F894BEBE0FBEADBEC8
:10036000CF91DF911F910F91FF90EF90DF90CF9091
:10037000BF90AF9008958F929F92BF92CF92DF92DD
:10038000EF92FF920F931F93DF93CF93CDB7DEB71A
:100390006C018DB69EB6FC01858DB82E833110F0B0
:1003A00092E1B92EE82EFF24EB18F1088DB79EB725
:1003B0008E199F090FB6F8949EBF0FBE8DBF0DB763
:1003C0001EB70F5F1F4F8BE591E06B2D70E040E093
:1003D00050E0D2D5C801B70140E050E0CDD58091C2
:1003E000E8008E778093E800F60182899389A489DA
:1003F000B5898B199109A109B109828B938BA48BC3
:10040000B58B81E00FB6F8949EBE0FBE8DBECF9126
:10041000DF911F910F91FF90EF90DF90CF90BF90F1
:100420009F908F900895EF92FF920F931F93CF9319
:10043000DF938C01262FFC0179966581748183817D
:100440009281E084E7017E013781F32EE701643970
:1004500041E1740740E0840740E0940770F0809128
:100460005D01807F856080935D0181E280936701FB
:100470001092680120E030E020C0222319F0A7018B
:1004800021D102C0A70181D29E0140E050E069E085
:10049000220F331F441F551F6A95D1F7F801828937
:1004A0009389A489B589821B930BA40BB50B828B0E
:1004B000938BA48BB58B21E030E0C901DF91CF9104
:1004C0001F910F91FF90EF9008950F931F93DF936B
:1004D000CF93CDB7DEB728970FB6F894DEBF0FBE27
:1004E000CDBF8C01FC01818D8E3109F46BC08F3141
:1004F00070F48330F9F0843020F4882309F462C06A
:1005000067C08231A1F08D3109F062C046C08832E7
:1005100009F452C0893220F4853209F059C00DC067
:100520008A3209F446C08F3209F052C04BC0C8016C
:10053000B6DE5AC0C8011FDF57C083E991E1A0E0D1
:10054000B0E089839A83AB83BC8380E092E0A0E033
:10055000B0E08D839E83AF83B887CE01019664E0BF
:1005600070E040E050E04FD5CE01059664E070E0C9
:1005700040E050E048D58091E8008E778093E80015
:10058000F80182899389A489B5890897A109B109DD
:10059000828B938BA48BB58B29C0F801828D82FD51
:1005A00011C080915D01807F856080935D0184E250
:1005B00016C0C80160E002C0C80161E034DF0097E6
:1005C000A9F41FC0F801128A138A148A158A0EC072
:1005D00080915D01807F856080935D0180E28093E2
:1005E0006701109268010DC0882359F080915D0168
:1005F000807F80935D01109267011092680181E015
:1006000001C080E028960FB6F894DEBF0FBECDBFC4
:10061000CF91DF911F910F9108958091E80085FDA2
:100620000BC08091E8008E778093E80074D291E04F
:10063000882319F090E001C091E0892F08958091FE
:10064000E80085FD0BC08091E8008B778093E8007F
:1006500062D291E0882319F090E001C091E0892FE7
:10066000089510928500109284008DE390E010C0F0
:100670002091C80027FD10C0209184003091850092
:1006800043EC20353407A0F31092850010928400CB
:10069000019771F780E0089581E008950F931F930B
:1006A000CF93DF938C01C0E0D0E004C0C8DF80911D
:1006B000F1002196C017D107C8F3DF91CF911F91A8
:1006C0000F9108952F923F924F925F926F927F9277
:1006D0008F929F92AF92BF92CF92DF92EF92FF9252
:1006E0000F931F93CF93DF937B018C014A0140EF5F
:1006F000A42EBB24BA9434E0732E20E4622E95E538
:10070000592E8AEA482E1DC1E114F1040105110594
:10071000C9F4C8EFD0E081DFFE0184918093F1003D
:100720002196F1E0C633DF07B1F7C0ECD1E075DF09
:100730001092F1002197D9F770DF5092F1004092AA
:10074000F100F7C081E0E816F1040105110531F070
:1007500092E1E916F10401051105C9F45EDFA092EA
:10076000F100B092F100B092F100B092F100B092BD
:10077000F100B092F100B092F100B092F100C8EF38
:10078000D1E04BDF1092F1002197D9F7D2C0E3E21C
:10079000EE16F1040105110579F5C6E3D1E03DDF60
:1007A000FE0184918093F1002196F1E0C635DF07C8
:1007B000B1F7C6E5D1E031DFFE0184918093F1000D
:1007C0002196F1E0C637DF07B1F7C6E7D1E025DFB4
:1007D000FE0184918093F1002196F1E0C639DF0794
:1007E000B1F7C0E6D0E019DF1092F100219682E067
:1007F000C030D807C1F79DC093E4E916F1040105A4
:10080000110509F06BC08091C80085FFFCCFB09244
:10081000CE008091C80085FFFCCF7092CE00809101
:10082000C80085FFFCCF1092CE008091C80085FFE4
:10083000FCCF6092CE0015DF882399F18091C8002B
:1008400087FFFCCF8091CE008F3FA9F70ADF882376
:1008500041F18091C80087FFFCCFC090CE0001DF3E
:100860008823F9F08091C80087FFFCCF8091CE00EB
:10087000DD24382E2224C228D328E5E0CE16D10468
:10088000D0F28CEF9FEFC80ED91EEBDE882349F023
:100890008091C80087FFFCCF8091CE00803859F648
:1008A00071C0C0E0D0E015C0DCDE882391F0B5DE79
:1008B0008091C80087FFFCCF8091CE008093F1002B
:1008C0002196CC15DD0580F304C0A7DE1092F1005F
:1008D000219692E0C030D907C0F32BC0E4E4EE16B5
:1008E000F10401051105D9F4C0E0D0E008C095DE9F
:1008F000FE01EA56FE4FE491E093F10021968091CB
:10090000750190E0C817D90790F304C086DE1092F5
:10091000F1002196F2E0C030DF07C0F30AC0C0E06A
:10092000D0E07BDE1092F100219682E0C030D80743
:10093000C1F70894E11CF11C011D111D08948108E8
:1009400091088114910409F0DFCE8091E80085FDC3
:1009500005C08091E8008E778093E80081E0DF9108
:10096000CF911F910F91FF90EF90DF90CF90BF90AC
:10097000AF909F908F907F906F905F904F903F903F
:100980002F900895C0E0D0E08FCF4F925F926F928A
:100990007F928F929F92AF92BF92CF92DF92EF920F
:1009A000FF920F931F93CF93DF937B018C016A011A
:1009B000442466246A947724739470E1572E6FEF71
:1009C000862E61E0962E56C084E4E816F1040105F7
:1009D000110508F444C0442009F041C05DE6A52E8D
:1009E00051E0B52EC0E0D0E02ADE9091F100F50193
:1009F00081915F01981721F0C4018C1B9D0B31C0C0
:100A00002196C730D10581F78091C80085FFFCCFC2
:100A10006092CE008091C80085FFFCCF1092CE007E
:100A20008091C80085FFFCCF7092CE008091C800F5
:100A300085FFFCCF5092CE00CCEFD0E000DE80915D
:100A4000F1009091C80095FFFCCF8093CE002197D4
:100A5000A9F78DEF90E022DE4424439403C080E0A8
:100A600092E01CDE0894E11CF11C011D111D08948C
:100A7000C108D108C114D10409F0A6CF8091E800C3
:100A800085FD05C08091E8008B778093E80081E0C8
:100A9000DF91CF911F910F91FF90EF90DF90CF905A
:100AA000BF90AF909F908F907F906F905F904F908E
:100AB00008958093E900EBEEF0E08081816080830F
:100AC000EDEEF0E010826093EC0040838091EE0048
:100AD000881F8827881F089580917B0187FF11C098
:100AE00003C08EB38823B1F08091E80082FFF9CF74
:100AF0008091E8008B778093E80008958EB3882377
:100B000049F08091E80080FFF9CF8091E8008E776E
:100B10008093E80008958091E4009091E50044E618
:100B20002091EC0020FF05C02091E80020FF05C0C7
:100B300019C02091E80022FD15C02EB32223A1F098
:100B40002530A1F02091EB0025FD12C02091E4009A
:100B50003091E5002817390719F3442359F0415023
:100B6000C901DECF80E0089582E0089583E0089512
:100B700081E0089584E008953ED040D08091D8006F
:100B8000982F9F779093D80080688093D80084E056
:100B900089BD89B5826089BD09B400FEFDCF809111
:100BA000D8008F7D8093D8001EBA109279011092E0
:100BB000780180E060E042E07CDF8091E1008E7FA0
:100BC0008093E1008091E20081608093E200809157
:100BD000E20088608093E2008091E0008E7F809345
:100BE000E0000895E3E6F0E080818E7F808381E07D
:100BF00080937A01C1CF1092E20008951092E10033
:100C000008951F920F920FB60F9211242F933F93C6
:100C10004F935F936F937F938F939F93AF93BF9304
:100C2000EF93FF938091E10080FF1BC08091E20071
:100C300080FF17C08091E1008E7F8093E10080915A
:100C4000E2008E7F8093E2008091E20080618093D9
:100C5000E2008091D80080628093D80019BC1EBA4F
:100C6000E7DA8091E10084FF2DC08091E20084FFEB
:100C700029C084E089BD89B5826089BD09B400FEC0
:100C8000FDCF8091D8008F7D8093D8008091E100C6
:100C90008F7E8093E1008091E2008F7E8093E2005E
:100CA0008091E20081608093E20080917901882345
:100CB00021F48091E30087FF02C084E001C081E05D
:100CC0008EBBB5DA8091E10083FF21C08091E20004
:100CD00083FF1DC08091E100877F8093E10082E067
:100CE0008EBB109279018091E1008E7F8093E100AC
:100CF0008091E2008E7F8093E2008091E20080612B
:100D00008093E20080E060E042E0D3DE34D1809165
:100D1000E10082FF0AC08091E20082FF06C080915C
:100D2000E1008B7F8093E10026D1FF91EF91BF918D
:100D3000AF919F918F917F916F915F914F913F9173
:100D40002F910F900FBE0F901F9018950F931F9328
:100D5000DF93CF9300D0CDB7DEB7EBE7F1E0809122
:100D6000F100819381E0E338F807C9F766DA8091F2
:100D7000E80083FFEBC080917B0190917C0195306E
:100D800009F472C0963040F4913099F1913070F0CE
:100D9000933009F0DBC02DC0983009F4AAC0993017
:100DA00009F4B9C0963009F0D1C083C0803821F071
:100DB000823809F0CBC005C080917801882371F496
:100DC0000EC080917F0187708093E9009091EB00C5
:100DD00081E095FF80E01092E90001C081E09091F0
:100DE000E800977F9093E8008093F1001092F10063
:100DF0008BC0882319F0823009F0A8C08F7182302F
:100E000009F0A4C080917D01882341F520917F01E4
:100E1000277009F49BC02093E9008091EB0080FFCC
:100E20001DC080917C01833021F48091EB008062B1
:100E300013C08091EB0080618093EB0081E090E033
:100E400002C0880F991F2A95E2F78093EA0010925A
:100E5000EA008091EB0088608093EB001092E9003B
:100E60008091E800877F53C0882309F06FC01091FC
:100E70007D011F770FB7F8948091E800877F8093FA
:100E8000E8002ADE8091E80080FFFCCF112311F0FA
:100E900083E001C082E08EBB8091E3008078812BEB
:100EA0008093E3008091E30080688093E3000FBFAC
:100EB0004DC08058823008F049C080917D019091EA
:100EC0007E0160917F01AE014F5F5F4FBBD9BC01D6
:100ED000009709F43BC08091E800877F8093E80089
:100EE00089819A811AD18091E8008B778093E800FC
:100EF0002DC0803859F58091E800877F8093E80005
:100F0000809179018093F1008091E8008E77809341
:100F1000E800E2DD1BC08823C9F490917D01923086
:100F2000A8F48091E800877F8093E800909379018E
:100F3000D3DD80917901882321F48091E30087FF3C
:100F400002C084E001C081E08EBB73D98091E800CB
:100F500083FF0AC08091EB0080628093EB00809158
:100F6000E800877F8093E8000F900F90CF91DF918A
:100F70001F910F9108950895AF92BF92DF92EF9263
:100F8000FF920F931F93DF93CF930F92CDB7DEB7EE
:100F9000082F5B017A019983BEDDD82E99818823C1
:100FA00031F5192F1CC08091E80085FD10C080919B
:100FB000E8008E778093E800E114F10421F0F70156
:100FC0000995813081F0A7DD882349F00FC0F80131
:100FD00081918F018093F1000894A108B108A114B8
:100FE000B10409F704C095E0D92E01C0D82E8D2D8B
:100FF0000F90CF91DF911F910F91FF90EF90DF90B5
:10100000BF90AF900895BF92CF92DF92EF92FF9280
:101010000F931F93CF93DF936C01EB017A017BDD7C
:10102000B82E882341F58E01015010400C0D1D1D76
:101030001BC08091E80085FD10C08091E8008E778C
:101040008093E800E114F10421F0F7010995813063
:1010500071F061DD882341F00DC0F80180810150FD
:1010600010408093F1002197209719F704C045E0C4
:10107000B42E01C0B82E8B2DDF91CF911F910F910F
:10108000FF90EF90DF90CF90BF900895AF92BF9206
:10109000DF92EF92FF920F931F93DF93CF930F9204
:1010A000CDB7DEB7082F5B017A01998334DDD82EE6
:1010B0009981882331F5192F1CC08091E80085FDA6
:1010C00010C08091E8008B778093E800E114F10470
:1010D00021F0F7010995813081F01DDD882349F069
:1010E0000FC08091F100F80181938F010894A1084D
:1010F000B108A114B10409F704C075E0D72E01C0EE
:10110000D82E8D2D0F90CF91DF911F910F91FF90D1
:10111000EF90DF90BF90AF900895282F392F8091E6
:101120008101909182018617970718F4BC0140E075
:1011300038C061157105D9F78091E8008E778093EA
:10114000E800F5CF8EB3882309F440C08530D1F193
:101150008091E80083FD38C08091E80082FD2CC0BA
:101160008091E80080FF1DC08091F20090E009C0EE
:10117000F9012F5F3F4FE491E093F100615070401F
:1011800001966115710519F08830910588F341E0E9
:101190008830910509F040E08091E8008E778093D7
:1011A000E8006115710571F6442361F605C08EB340
:1011B000882361F0853061F08091E80082FFF7CFED
:1011C00080E0089583E0089581E0089582E0089525
:1011D00083E008951F938EB3882361F01091E90096
:1011E00017701092E9008091E80083FF01C0AEDD26
:1011F0001093E9001F910895EDDFE0917601F091E1
:10120000770180810895CF93DF93EC018091E8000E
:1012100083FF2FC0888190E020917F013091800171
:101220002817390731F580917C018E3F79F08F3F87
:1012300001F580917B018132E1F48091E800877FA4
:101240008093E80049DC81E08EAB13C080917B0184
:10125000813A79F48091E800877F8093E80089855E
:1012600081508093F1008091E8008E778093E800B0
:1012700033DCDF91CF9108951F93CF93DF93EC017F
:101280000A96FC018DE2DF011D928A95E9F711E0D3
:101290008981181729F4EA81FB818C8161E007C0FC
:1012A0008D811817E1F4EE81FF81888560E0882345
:1012B00011F044E001C040E0606828E030E080E0E8
:1012C00003C08F5F220F331F2E173F07D0F34260FA
:1012D0008295807F482B812FECDB882329F01F5FCC
:1012E0001530B1F681E001C080E0DF91CF911F9110
:1012F00008950F931F93CF93DF93EC018EB3843047
:1013000009F0E7C08D818093E9008091E80085FFB6
:10131000ABC08D818093E9008E010A5C1F4F109352
:10132000770100937601CE010A966FE070E04CEFF2
:1013300058E0ACDE882309F097C08A859B85AC8590
:10134000BD85853523E5920722E4A20723E4B20791
:1013500079F49F898985981758F48E8990E08F7168
:101360009070009729F4688D662311F0613170F058
:101370008091EB0080628093EB0089818093E9008B
:101380008091EB0080628093EB006EC01093770138
:1013900000937601CE01499670E04CEF58E076DE7E
:1013A000882309F061C08091E8008B778093E80082
:1013B0008E8987FF03C089818093E900CE010E9456
:1013C000200191E098279DAB25E533E542E453E504
:1013D00029A73AA74BA75CA72E853F85488959893D
:1013E0002DA73EA74FA758AB2A893B894C895D8919
:1013F00029AB3AAB4BAB5CAB913051F421153105C5
:101400004105510529F08091EB0080628093EB004B
:101410008D818093E90004C0DDDE8EA9882321F54B
:101420008091EB0085FDF8CF89818093E90004C0AD
:10143000D1DE8EA98823C1F48091EB0085FDF8CF21
:10144000CE01C6969093770180937601CE0189965E
:101450006DE070E04CEF58E08FDD882329F4809137
:10146000E8008E778093E8008EA9882391F181E0CF
:1014700090E09C010D8002C0220F331F0A94E2F716
:101480002093EA001092EA00098002C0880F991F99
:101490000A94E2F78093EA001092EA008D8180932B
:1014A000E9008091EB0080618093EB008091EB007C
:1014B00088608093EB0089818093E9008091EB0044
:1014C00080618093EB008091EB0088608093EB005B
:1014D0001EAADF91CF911F910F910895F894FFCF2D
:1014E0000003400000044000000100000000000074
:1014F00000000000000000000000000000000000EC
:1015000000000000000000000000000000000000DB
:1015100000000000000000008000021F0000004FDB
:1015200070656E5043520050435220436F6E747288
:101530006F6C6C65720000302E303070000000005F
:1015400000000A00000000000000000000733D41A0
:0615500043475443000B69
:00000001FF
